:020000040800F2
:10000000000002208D450008A5090008A709000886
:10001000A9090008AB090008AD09000800000000AC
:10002000000000000000000000000000AF09000810
:10003000B109000800000000B3090008B509000874
:10004000DD450008DD450008DD450008DD45000808
:10005000DD450008DD450008DD450008DD450008F8
:10006000DD450008DD450008DD450008DD450008E8
:10007000DD450008DD450008DD450008DD450008D8
:10008000DD450008DD450008DD450008DD450008C8
:10009000DD450008DD450008DD450008DD450008B8
:1000A000DD450008DD450008DD450008DD450008A8
:1000B000DD450008DD450008DD450008DD45000898
:1000C000DD450008DD450008DD450008DD45000888
:1000D000DD450008DD450008DD450008DD45000878
:1000E000DD450008DD45000800000000DD45000892
:1000F000DD450008DD450008DD450008DD45000858
:10010000DD450008DD450008DD450008DD45000847
:10011000DD450008DD450008DD450008DD45000837
:10012000DD450008DD450008DD450008DD45000827
:10013000DD450008DD450008DD450008DD45000817
:1001400000000000000000000000000000000000AF
:10015000DD450008DD450008DD450008DD450008F7
:10016000DD450008DD450008DD450008DD450008E7
:10017000DD450008DD450008DD4500080000000001
:10018000DD450008DD450008DD450008DD450008C7
:10019000DD450008DD450008DD450008DD450008B7
:1001A000DD450008DD450008DD450008DD450008A7
:1001B000DD450008DD450008DD450008DD45000897
:1001C000DD450008DD450008DD450008DD45000887
:1001D000DD450008DD450008DD450008DD45000877
:1001E000DD450008DD450008DD450008DD45000867
:1001F000DD450008DD450008DD450008DD45000857
:10020000DD450008DD450008DD450008DD45000846
:10021000DD450008DD450008DD450008DD45000836
:10022000DD450008DD450008DD4500080000000050
:10023000DD450008DD45000800000000DD45000840
:10024000DD450008DD450008DD450008DD45000806
:10025000DD450008DD450008DD450008DD450008F6
:10026000DD450008DD450008DD450008DD450008E6
:10027000DD450008DD450008DD4500080000000000
:10028000DD450008DD450008DD45000800000000F0
:0802900000000000DD4500083C
:1002980010B5054C237833B9044B13B10448AFF3B8
:1002A80000800123237010BDD00000200000000052
:1002B8003846000808B5034B1BB103490348AFF3A0
:1002C800008008BD00000000D40000203846000867
:1002D80053B94AB9002908BF00281CBF4FF0FF31A5
:1002E8004FF0FF3000F074B9ADF1080C6DE904CEA1
:1002F80000F006F8DDF804E0DDE9022304B07047F9
:100308002DE9F047089D04468E46002B4DD18A42C0
:10031800944669D9B2FA82F252B101FA02F3C2F1F3
:10032800200120FA01F10CFA02FC41EA030E944084
:100338004FEA1C48210CBEFBF8F61FFA8CF708FBA5
:1003480016E341EA034306FB07F199420AD91CEB7D
:10035800030306F1FF3080F01F81994240F21C81AF
:10036800023E63445B1AA4B2B3FBF8F008FB1033F7
:1003780044EA034400FB07F7A7420AD91CEB04042C
:1003880000F1FF3380F00A81A74240F207816444FC
:10039800023840EA0640E41B00261DB1D440002381
:1003A800C5E900433146BDE8F0878B4209D9002DE5
:1003B80000F0EF800026C5E9000130463146BDE86F
:1003C800F087B3FA83F6002E4AD18B4202D38242D9
:1003D80000F2F980841A61EB030301209E46002D88
:1003E800E0D0C5E9004EDDE702B9FFDEB2FA82F2DD
:1003F800002A40F09280A1EB0C014FEA1C471FFA3B
:100408008CFE0126200CB1FBF7F307FB131140EA21
:1004180001410EFB03F0884208D91CEB010103F1EE
:10042800FF3802D2884200F2CB804346091AA4B2B0
:10043800B1FBF7F007FB101144EA01440EFB00FE84
:10044800A64508D91CEB040400F1FF3102D2A645E9
:1004580000F2BB800846A4EB0E0440EA03409CE788
:10046800C6F12007B34022FA07FC4CEA030C20FA35
:1004780007F401FA06F31C43F9404FEA1C4900FA55
:1004880006F3B1FBF9F8200C1FFA8CFE09FB1811D2
:1004980040EA014108FB0EF0884202FA06F20BD945
:1004A8001CEB010108F1FF3A80F08880884240F295
:1004B8008580A8F102086144091AA4B2B1FBF9F0D9
:1004C80009FB101144EA014100FB0EFE8E4508D9D4
:1004D8001CEB010100F1FF346CD28E456AD9023859
:1004E800614440EA0840A0FB0294A1EB0E01A1423E
:1004F800C846A64656D353D05DB1B3EB080261EBAC
:100508000E0101FA07F722FA06F3F1401F43C5E985
:10051800007100263146BDE8F087C2F12003D840BB
:100528000CFA02FC21FA03F3914001434FEA1C47FD
:100538001FFA8CFEB3FBF7F007FB10360B0C43EAEF
:10054800064300FB0EF69E4204FA02F408D91CEB9F
:10055800030300F1FF382FD29E422DD9023863449D
:100568009B1B89B2B3FBF7F607FB163341EA03413D
:1005780006FB0EF38B4208D91CEB010106F1FF388C
:1005880016D28B4214D9023E6144C91A46EA004683
:1005980038E72E46284605E70646E3E61846F8E615
:1005A8004B45A9D2B9EB020864EB0C0E0138A3E75E
:1005B8004646EAE7204694E74046D1E7D0467BE73F
:1005C800023B614432E7304609E76444023842E7B7
:1005D800704700BF2DE9F0418CB0002407940894BF
:1005E80009940A940B944F4BD3F8E02042F0100280
:1005F800C3F8E020D3F8E02002F010020092009A3D
:10060800D3F8E02042F00402C3F8E020D3F8E02059
:1006180002F004020192019AD3F8E02042F080022D
:10062800C3F8E020D3F8E02002F080020292029A98
:10063800D3F8E02042F00102C3F8E020D3F8E0202C
:1006480002F001020392039AD3F8E02042F002027A
:10065800C3F8E020D3F8E02002F002020492049AE2
:10066800D3F8E02042F00802C3F8E020D3F8E020F5
:1006780002F008020592059AD3F8E02042F0400201
:10068800C3F8E020D3F8E03003F040030693069B5C
:10069800DFF8A480224644F20101404602F0FBFD47
:1006A800214F22464FF48061384602F0F4FD1F4E78
:1006B80022460221304602F0EEFD4FF40053079324
:1006C8000894099407A91A4802F0CEFC44F20103E1
:1006D80007930125089509940A9407A9404602F052
:1006E800C3FC4FF480630793089509940A9407A9FB
:1006F800384602F0B9FC802307934FF48813089317
:10070800099407A90B4802F0AFFC02230793089548
:1007180009940A9407A9304602F0A6FC0CB0BDE87B
:10072800F08100BF00440258000C02580010025823
:1007380000080258001802580004025872B6FEE772
:1007480010B51448144B0360144B00221A70802112
:100758005970E1219970DA701A715A714360012356
:1007680003720F4BC3600F4B036140F2F4534361B4
:1007780000F094FD58B90C4C38220021204603F0B3
:100788004FFF212323604FF44033636110BDFFF70F
:10079800D5FF00BF7C01002000800240EC00002053
:1007A8007000002010000020F400002008B5154853
:1007B800154B03604FF4E133436000238360C3604B
:1007C80003610C2242618361C361036243628362F5
:1007D80003F0D3FA70B900210A4803F046FB58B970
:1007E8000021084803F066FB40B9064803F01EFBE9
:1007F80030B908BDFFF7A2FFFFF7A0FFFFF79EFF84
:10080800FFF79CFF380700200048004008B50B4858
:100818000B4B036009234360022202610023C3607B
:1008280082610122C261036243628262C26203631F
:1008380003F065FB00B908BDFFF780FF2C0200201C
:100848000000084008B50C480C4B036010234360B7
:1008580020238360002343618361C3770377437751
:100868008377036243628362C362036303F03AFEE1
:1008780000B908BDFFF762FF2C0100200000024804
:1008880000B59DB04C22002109A803F0C9FE202222
:10089800002101A803F0C4FE022002F00BFD002392
:1008A8000093264BDA6A22F00102DA62DB6A03F06F
:1008B80001030093224A936923F4404343F400431D
:1008C8009361936903F440430093009B1C4B9B691D
:1008D80013F4005FFAD0032309934FF4A0230A937B
:1008E80001220C9240230D93022312931393149226
:1008F8001822159216930422179218930C23199311
:1009080000231A931B9309A800F06EFD88B93F23B2
:10091800019300230293039304930593069307938B
:100928000893012101A801F0B3F920B91DB05DF8C1
:1009380004FBFFF703FFFFF701FF00BF00040058A7
:100948000048025808B502F00FFDFFF799FFFFF7BE
:1009580041FEFFF7F5FEFFF729FFFFF757FFFFF707
:1009680071FF0221094802F09CFC642002F03CFD62
:100978004FF40051064802F087FC0028F1D16423A7
:1009880012220449044803F02BF9EAE70010025840
:10099800000802585046000838070020FEE7FEE726
:1009A800FEE7FEE7FEE770477047704708B502F0BC
:1009B80009FD08BD82B0074BD3F8F42042F00202CB
:1009C800C3F8F420D3F8F43003F002030193019B39
:1009D80002B070470044025870B58AB000230593EE
:1009E80006930793089309930268364B9A4201D0FD
:1009F8000AB070BD344BD3F8DC2042F00102C3F8D2
:100A0800DC20D3F8DC2002F001020092009AD3F82F
:100A1800E02042F01002C3F8E020D3F8E02002F012
:100A280010020192019AD3F8E02042F00102C3F8C3
:100A3800E020D3F8E02002F001020292029AD3F8F3
:100A4800E02042F00402C3F8E020D3F8E02002F0EE
:100A580004020392039AD3F8E02042F00802C3F894
:100A6800E020D3F8E03003F008030493049B7023DC
:100A78000593022606960D25099505A9134802F047
:100A8800F3FA4023059306960024079408940995E1
:100A980005A90F4802F0E8FA4FF47073059306961B
:100AA80007940894099505A90A4802F0DDFA082375
:100AB8000593069607940894099505A9064802F037
:100AC800D3FA95E700000248004402580010025883
:100AD8000000025800080258000C025870B58CB08B
:100AE80000230793089309930A930B930268434BD7
:100AF8009A4201D00CB070BD414BD3F8D82042F4D3
:100B08000042C3F8D820D3F8D82002F4004200925B
:100B1800009AD3F8D82042F48032C3F8D820D3F80A
:100B2800D82002F480320192019AD3F8D82042F4F6
:100B38000032C3F8D820D3F8D82002F40032029249
:100B4800029AD3F8E02042F00402C3F8E020D3F878
:100B5800E02002F004020392039AD3F8E02042F066
:100B68000102C3F8E020D3F8E02002F00102049269
:100B7800049AD3F8E02042F00202C3F8E020D3F848
:100B8800E02002F002020592059AD3F8E02042F034
:100B98004002C3F8E020D3F8E03003F040030693A6
:100BA800069B32230793022608960B250B9507A967
:100BB800144802F059FA86230793089600240994EA
:100BC8000A940B9507A9104802F04EFA4FF4005307
:100BD8000793089609940A940B9507A90B4802F005
:100BE80043FA4FF420530793089609940A940B95F7
:100BF80007A9074802F038FA7CE700BF00800240E6
:100C08000044025800080258000002580004025824
:100C18000018025810B5B8B0044600213391349139
:100C2800359136913791C02202A803F0F9FC226869
:100C38001B4B9A4201D038B010BD02220023CDE9E7
:100C4800022302A801F0C0FA38BB164BD3F8E820FB
:100C580042F48022C3F8E820D3F8E82002F4802286
:100C68000092009AD3F8E02042F00802C3F8E0208E
:100C7800D3F8E03003F008030193019B4FF440736D
:100C88003393022334930023359336930723379302
:100C980033A9054802F0E8F9CDE7FFF74FFDD4E79F
:100CA8000048004000440258000C025870B5B8B023
:100CB8000446002133913491359136913791C02201
:100CC80002A803F0ADFC2268244B9A4201D038B048
:100CD80070BD4FF480220023CDE902234FF4801326
:100CE800249302A801F070FA002833D102F00CFB1B
:100CF8001B4CD4F8E03043F00103C4F8E030D4F8DA
:100D0800E03003F001030093009B4FF4C853339382
:100D1800022334930025359536950A233793114ECF
:100D280033A9304602F0A0F94FF400733393349599
:100D3800359533A9304602F097F9D4F8D83043F006
:100D48000063C4F8D830D4F8D83003F000630193B6
:100D5800019BBCE7FFF7F2FCC8E700BF00000840B2
:100D680000440258000002580649CB6823F4E063A7
:100D78001B041B0C000200F4E0600343024A1A4300
:100D8800CA60704700ED00E00000FA0500B5174B97
:100D9800DB68C3F30223C3F1070CBCF1040F28BFBF
:100DA8004FF0040C03F1040EBEF1060F14D9033BF7
:100DB8004FF0FF3E0EFA0CFC21EA0C0199400EFAA6
:100DC80003F322EA03031943002807DB0901C9B228
:100DD800074B19545DF804FB0023E9E700F00F0006
:100DE8000901C9B2034B1954F4E700BF00ED00E054
:100DF80000E400E014ED00E00138B0F1807F0BD290
:100E08004FF0E0235861054AF02182F823100020B2
:100E1800986107221A6170470120704700ED00E0D1
:100E280030B48B680A6813430A7943EAC2630A7BC1
:100E380043EAC2534A7B43EA82538A7B43EA4253DA
:100E4800CA7B43EA02530A7C002A40F0B0804FF480
:100E5800002213434A7C002A40F0AB804FF4003252
:100E680013438A7C43EA02434A6913438A6913435A
:100E78000A7F43EA02334A7F43EAC2238A7F002A71
:100E880040F099804FF480621343CA7F43EA4223BB
:100E980091F82020002A40F090804FF4807213438C
:100EA8004A6A134391F8282043EA0213CA6A134393
:100EB8000468226822F07F4222F47B0222F4FE4278
:100EC80022F07C0213432360CA6B91F838301B066A
:100ED80043EA426391F8302043EA824391F8312093
:100EE80043EA424391F83220002A68D14FF4803215
:100EF80013434A6B13430468626822F07C5222F45D
:100F0800EF2222F4FF6222F007021343636091F894
:100F180040204B6C43EA02220468E5682B4B2B40C7
:100F28001343E36091F854200B6D43EA420391F8B0
:100F38004C20002A45D1802213438A6C43EA02439D
:100F48000468226F22F0F2021204120C1343236782
:100F580091F8563091F8552043EA42020468D4F8D3
:100F6800903023F003031343C4F890300268D2F89A
:100F7800003D23F072038C6D2343C2F8003DCB6D16
:100F880091F86020FAB94022134391F8612043EAAE
:100F9800021391F8622043EAC2030168D1F8302DA8
:100FA80022F07B021343C1F8303D30BC7047002269
:100FB8004FE7002254E7002266E700226FE700228D
:100FC80096E70022B8E70022DEE700BFF0FEFFFF49
:100FD80010B4026802F580521468244B23400C6850
:100FE800234313600A798B6843EA02330A7B43EA96
:100FF800C232036803F5805CDCF804401C4B2340D4
:101008001343CCF8043091F80DC00B6A43EA0C4C3A
:10101800026802F58052D2F80041164B234043EA99
:101028000C03C2F800310B690A7D43EA02134A7FB8
:1010380043EA0232036803F5805CDCF804410E4B96
:1010480023401343CCF804310A7F896941EAC2710D
:10105800026802F58052D2F80801084B03400B439E
:10106800C2F808315DF8044B704700BFFD87FFFFE9
:10107800FE2FFFFF00C0FEFFEFEFC0FFFFFFC07FA6
:1010880070B5A2B0064601258DF83350002412949D
:101098008DF841408DF843408DF828508DF8565012
:1010A8008DF832508DF84C408DF884504FF4005331
:1010B8000F938DF85C4018948DF885408DF8864024
:1010C8004FF4C36316938DF830400B948DF8355068
:1010D8008DF836408DF840401D941B9414948DF87B
:1010E80064408DF87A408DF84250202320938DF883
:1010F80044508DF855404FF0405309934FF48043C6
:101108000E938DF8314002231F938DF878408DF8A7
:1011180079408DF854408DF834501A948DF87050F9
:1011280009A9FFF77DFE8DF80450029500948DF80B
:101138001C408DF80D408DF80C404FF400130693B9
:101148008DF8144004938DF81D404FF406730893EE
:1011580069463046FFF73CFF22B070BD10B400224C
:1011680010E0C46802EB42034FEAC30C04EBC3036C
:10117800002144F80C1059609960D960911D40F81D
:1011880021300132032AECD900238362036803F576
:1011980080530322C3F82C21C268036803F58053E7
:1011A800C3F81421C268036803F58053C3F82021EB
:1011B8005DF8044B704710B4002113E0046901EB9B
:1011C80041034FEAC30C04EBC303002244F80C208C
:1011D8005A609A60DA601A615A6101F1120240F8A5
:1011E800223001310329E9D90023C36503668366E8
:1011F800C3668365036803F580530322C3F830216F
:101208000269036803F58053C3F81C21036903F1DD
:101218004802036803F58053C3F828215DF8044B9E
:101228007047000038B505460368D3F8004224F437
:10123800706400F077FE114B0344114A934205D2C3
:1012480044F400742B68C3F8004238BD0D4B0344C6
:101258000D4A934202D844F44074F3E70B4B03441D
:101268000B4A9342EED30B4B03440B4A934202D8EA
:1012780044F48074E6E744F48064E3E700D3CEFEE8
:10128800C0E1E40040F1E9FD3F787D0100796CFCA4
:10129800005A6202001F0AFA7FF0FA02002800F0E2
:1012A800998030B583B00446D0F884309BB34A4B5C
:1012B800D3F8F42042F00202C3F8F420D3F8F43053
:1012C80003F002030193019B237A53BB002002F031
:1012D800A5F8424B5B68236803F580531A6842F00F
:1012E80001021A6002F07AF80546236803F5805374
:1012F8001B6813F0010F19D002F070F8401BB0F50D
:10130800FA7FF2D90423C4F88830E023C4F8843083
:10131800012003B030BD2323C0F88430FFF7DEFB83
:10132800C5E74FF4000002F079F8D2E72046FFF74E
:1013380079FF00F0F7FD2A4BA3FB00239B0C2268E2
:10134800013BC2F8DC302046FFF79AFE226802F51E
:101358008052D2F8003123F4E01343F40023C2F89A
:101368000031626912F0030F06D00120C4F888002A
:10137800E023C4F88430CCE7216801F58051D1F826
:101388000801184B034043EA4203C1F808312046DC
:10139800FFF7E4FE2046FFF70EFF626851791379E4
:1013A800226843EA0123C2F800336268D17893784F
:1013B8001B0443EA0163517843EA01231178226848
:1013C8000B43C2F804330020C4F888001023C4F883
:1013D80084309EE7012070470044025800040058FA
:1013E80083DE1B430180FFFF002800F0398338B5F6
:1013F8000446036813F0010F25D0944A136903F0DB
:101408003803926A102B15D0182B0FD06368B3F5E8
:10141800803F3FD0002B53D18C4B1A6822F4803286
:101428001A601A6822F480221A6038E002F0030277
:10143800022AEBD1854B1B6813F4003F03D0636885
:10144800002B00F00F83236813F0020F00F0A18037
:101458007E4A1369926A13F038035AD0182B55D074
:10146800E368002B00F0DE8078490A6822F0190250
:1014780013430B6001F0B2FF0546744B1B6813F071
:10148800040F40F0AD8001F0A9FF401B0228F4D9F9
:101498000320EEE26D4A136843F4803313606368F7
:1014A8002BB301F09BFF0546684B1B6813F4003F04
:1014B800C9D101F093FF401B6428F5D90320D8E275
:1014C800B3F5A02F09D0614B1A6822F480321A6054
:1014D8001A6822F480221A60E1E75C4B1A6842F429
:1014E80080221A601A6842F480321A60D7E701F045
:1014F80075FF0546554B1B6813F4003FA3D001F058
:101508006DFF401B6428F5D90320B2E212F0030FE7
:10151800A6D14E4B1B6813F0040F03D0E368002BD1
:1015280000F0A282494A136823F01903E1680B43CB
:10153800136001F053FF0546444B1B6813F0040F7A
:1015480006D101F04BFF401B0228F5D9032090E299
:1015580001F05EFF41F20303984212D82269402A43
:1015680007D03A494B6823F47C3343EA02334B6093
:101578000FE0364A536823F47C3343F40033536056
:1015880007E0324A536823F0FE43216943EA0163C6
:101598005360236813F0100F00F088802B4A1369FA
:1015A80003F03803926A082B56D0182B50D0E36901
:1015B800002B00F0B880254A136843F080031360BD
:1015C80001F00CFF0546214B1B6813F4807F40F0A7
:1015D800888001F003FF401B0228F4D9032048E269
:1015E80001F016FF41F20303984212D82269402AFB
:1015F80007D016494B6823F47C3343EA02334B6027
:10160800C7E7124A536823F47C3343F4003353602A
:10161800BFE70E4A536823F0FE43216943EA01639A
:101628005360B6E7094A136823F00103136001F019
:10163800D5FE0546054B1B6813F0040FA9D001F031
:10164800CDFE401B0228F5D9032012E200440258BF
:1016580002F00302012AAAD1A14B1B6813F4807F70
:1016680003D0E369802B40F0018201F0D1FE41F202
:101678000303984212D8226A202A07D098494B6857
:1016880023F0F84343EA82634B600FE0944A5368BF
:1016980023F0F84343F08043536007E0904AD3684F
:1016A80023F07C53216A43EA0163D360236813F073
:1016B800080F60D06369002B49D0894A536F43F003
:1016C8000103536701F08AFE0546854B5B6F13F0F3
:1016D800020F50D101F082FE401B0228F5D90320E9
:1016E800C7E101F095FE41F20303984212D8226A3D
:1016F800202A07D07A494B6823F0F84343EA8263EB
:101708004B60D3E7764A536823F0F84343F08043AD
:101718005360CBE7724AD36823F07C53216A43EACB
:101728000163D360C2E76E4A136823F08003136035
:1017380001F054FE05466A4B1B6813F4807FB5D050
:1017480001F04CFE401B0228F5D9032091E1644AC0
:10175800536F23F00103536701F040FE0546604BC9
:101768005B6F13F0020F06D001F038FE401B022811
:10177800F5D903207DE1236813F0200F29D0A36950
:101788009BB1574A136843F48053136001F026FE57
:101798000546534B1B6813F4005F1AD101F01EFE77
:1017A800401B0228F5D9032063E14D4A136823F44E
:1017B8008053136001F012FE0546494B1B6813F471
:1017C800005F06D001F00AFE401B0228F5D903206D
:1017D8004FE1236813F0040F21D1636A002B00F056
:1017E80047813F4A126902F03802182A00F0EE8059
:1017F800022B79D03A4A136823F08073136001F002
:10180800EDFD0446364B1B6813F0007F00F0DC80CA
:1018180001F0E4FD001B0228F4D9032029E1314A34
:10182800136843F48073136001F0D8FD05462D4B0F
:101838001B6813F4807F06D101F0D0FD401B64289B
:10184800F5D9032015E1A368012B0AD00BBB244B63
:101858001A6F22F001021A671A6F22F004021A673F
:1018680004E01F4A136F43F001031367A36833B3FF
:1018780001F0B4FD05461A4B1B6F13F0020FACD1F3
:1018880001F0ACFD401B41F288339842F3D90320A4
:10189800EFE0052B09D0124B1A6F22F001021A67EC
:1018A8001A6F22F004021A67E0E70D4B1A6F42F034
:1018B80004021A671A6F42F001021A67D6E701F0AC
:1018C8008DFD0546064B1B6F13F0020F85D001F006
:1018D80085FD401B41F288339842F3D90320C8E0C4
:1018E8000044025800480258694A136823F080737C
:1018F800136001F073FD0546654B1B6813F0007F0C
:1019080006D001F06BFD401B0228F5D90320B0E09A
:101918005F4B996A5F4A0A40A16AE06A41EA00118E
:101928000A439A62226B013AC2F30802616B0139D9
:10193800490289B20A43A16B0139090401F4FE0185
:101948000A43E16B0139090601F0FE410A431A63B3
:10195800DA6A22F00102DA62596B4F4A0A40A16C36
:1019680042EAC1025A63DA6A22F00C02216C0A4385
:10197800DA62DA6A22F00202616C0A43DA62DA6A2F
:1019880042F48032DA62DA6A42F40032DA62DA6AFF
:1019980042F48022DA62DA6A42F00102DA621A68F4
:1019A80042F080721A6001F019FD0446384B1B683A
:1019B80013F0007F06D101F011FD001B0228F5D9B4
:1019C800032056E0002054E0002052E0304A916A9B
:1019D800106B012B4ED001F00303A26A93424BD146
:1019E800C1F30511E36A994248D1C0F30802236B99
:1019F800013B9A4244D1C0F34622636B013B9A42B1
:101A080040D1C0F30642A36B013B9A423CD1C0F3DC
:101A18000660E36B013B984238D11D4B5B6BC3F307
:101A2800CC03A26C9A4201D1002022E0184AD36A62
:101A380023F00103D36201F0D1FC054601F0CEFC8E
:101A4800A842FBD0124A516B134B0B40A16C43EADE
:101A5800C1035363D36A43F00103D362002008E053
:101A680001207047012004E0012002E0012000E08D
:101A7800002038BD0120FCE70120FAE70120F8E743
:101A88000120F6E70120F4E70120F2E70120F0E762
:101A9800004402580CFCFFFF0700FFFF744B1B6952
:101AA80003F03803102B00F0DE80182B10D00BB198
:101AB800704870476E4B1B6813F0200F00F0D580FC
:101AC8006B4B1868C0F3C1006B4B23FA00F07047EA
:101AD80010B4674A916A01F00301946AC4F30510CF
:101AE800D36A03F0010C536BC3F3CC030CFB03F371
:101AF80007EE903AF8EE677A14F47C7F00F0938052
:101B0800012965D0022900F09180E1B107EE100AA1
:101B1800F8EE476A9FED596A86EE267A544B1B6B9E
:101B2800C3F3080306EE903AF8EE666A9FED546A2E
:101B380067EE867A76EEA77AF7EE006A77EEA67AEF
:101B480027EE277A60E0136813F0200F23D01146A0
:101B58001268C2F3C102484BD34007EE103AF8EEC0
:101B6800476A07EE100AB8EE476A86EE867A0B6B6C
:101B7800C3F3080306EE903AF8EE666A9FED406AF2
:101B880067EE867A76EEA77AF7EE006A77EEA67A9F
:101B980027EE277A38E007EE100AF8EE476A9FED3D
:101BA800396A86EE267A324B1B6BC3F3080306EEBE
:101BB800903AF8EE666A9FED326A67EE867A76EEBC
:101BC800A77AF7EE006A77EEA67A27EE277A1BE067
:101BD80007EE100AF8EE476A9FED286A86EE267A25
:101BE800234B1B6BC3F3080306EE903AF8EE666AC4
:101BF8009FED236A67EE867A76EEA77AF7EE006A9B
:101C080077EEA67A27EE277A194B1B6BC3F3462388
:101C1800013307EE903AF8EE677AC7EE276AFCEED2
:101C2800E67A17EE900A5DF8044B704707EE100A43
:101C3800F8EE476A9FED146A86EE267A0C4B1B6B0A
:101C4800C3F3080306EE903AF8EE666A9FED0C6A55
:101C580067EE867A76EEA77AF7EE006A77EEA67ACE
:101C680027EE277AD0E7094870470348704700BF36
:101C78000044025800093D000090D0030024744A33
:101C8800000000390024744C0024F44A00127A0041
:101C9800002800F0328170B50D4604469B4B1B6846
:101CA80003F00F038B420BD2984A136823F00F03FB
:101CB8000B431360136803F00F038B4240F01F813E
:101CC800236813F0040F0CD02269914B9B6903F031
:101CD80070039A4205D98E498B6923F070031A4321
:101CE8008A61236813F0080F0CD06269884BDB699E
:101CF80003F070039A4205D98549CB6923F0700334
:101D08001A43CA61236813F0100F0CD0A269804BE4
:101D1800DB6903F4E0639A4205D97D49CB6923F472
:101D2800E0631A43CA61236813F0200F0CD0E269FC
:101D3800774B1B6A03F070039A4205D974490B6A02
:101D480023F070031A430A62236813F0020F0CD0C1
:101D5800E2686F4B9B6903F00F039A4205D96C49FF
:101D68008B6923F00F031A438A61236813F0010F6C
:101D780041D0674A936923F47063A1680B43936168
:101D88006368022B0AD0032B27D0012B2CD0604A82
:101D9800126812F0040F06D10120ADE0126812F4A7
:101DA800003F00F0AE805A490A6922F00702134347
:101DB8000B6101F013FB0646554B1B6903F0380312
:101DC8006268B3EBC20F16D001F008FB801B41F22A
:101DD80088339842F0D903208EE04D4A126812F0F9
:101DE800007FE0D1012087E0494A126812F4807F21
:101DF800D9D1012080E0236813F0020F0CD0E268EB
:101E0800434B9B6903F00F039A4205D240498B6903
:101E180023F00F031A438A613C4B1B6803F00F033E
:101E2800AB420AD9394A136823F00F032B431360D6
:101E3800136803F00F03AB4265D1236813F0040F56
:101E48000CD02269324B9B6903F070039A4205D289
:101E58002F498B6923F070031A438A61236813F0B2
:101E6800080F0CD062692A4BDB6903F070039A42B1
:101E780005D22749CB6923F070031A43CA61236846
:101E880013F0100F0CD0A269214BDB6903F4E06357
:101E98009A4205D21E49CB6923F4E0631A43CA610A
:101EA800236813F0200F0CD0E269194B1B6A03F06A
:101EB80070039A4205D216490B6A23F070031A433D
:101EC8000A62FFF7EBFD12498B69C3F30323114A3A
:101ED800D35C03F01F03D8408B6903F00F03D35C76
:101EE80003F01F0320FA03F30B4A13600B4B18602F
:101EF8000B4B186801F010FA70BD012070470120E3
:101F0800FAE70120F8E70120F6E700BF00200052B9
:101F1800004402588C4600080C00002008000020ED
:101F28000400002008B5FFF7B9FD0B4A9369C3F315
:101F380003230A49CB5C03F01F0320FA03F39269D9
:101F480002F00F02885C00F01F0023FA00F0044A38
:101F58001060044A136008BD004402588C4600080B
:101F68000C0000200800002008B5FFF7DBFF054B38
:101F7800DB69C3F30213044AD35C03F01F03D840A0
:101F880008BD00BF004402588C46000808B5FFF79A
:101F9800C9FF054BDB69C3F30223044AD35C03F092
:101FA8001F03D84008BD00BF004402588C460008F3
:101FB800404B9B6A03F00303032B79D070B50546A9
:101FC8000E463C4A136823F08063136001F006FA5A
:101FD8000446384B1B6813F0006F06D001F0FEF979
:101FE800031B022BF5D9032070BD324B9A6A22F4E9
:101FF8007C32296842EA01329A626A68013AC2F37D
:102008000802A9680139490289B20A43E968013915
:10201800090401F4FE010A4329690139090601F09E
:10202800FE410A439A63DA6A22F0C00269690A43E8
:10203800DA62DA6A22F02002A9690A43DA62DA6A05
:1020480022F01002DA62D96B1B4A0A40E96942EAB7
:10205800C102DA63DA6A42F01002DA62C6B91A46D5
:10206800DB6A43F40023D362124A136843F08063A7
:10207800136001F0B3F904460E4B1B6813F0006FB0
:1020880014D101F0ABF9001B0228F5D90320ABE706
:10209800012E05D0074AD36A43F40013D362E3E75D
:1020A800044AD36A43F48013D362DDE700209BE738
:1020B80001207047004402580700FFFF404B9B6A0D
:1020C80003F00303032B79D070B505460E463C4A4E
:1020D800136823F08053136001F080F90446384BED
:1020E8001B6813F0005F06D001F078F9031B022B80
:1020F800F5D9032070BD324B9A6A22F07C722968A8
:1021080042EA01529A626A68013AC2F30802A9686F
:102118000139490289B20A43E9680139090401F41D
:10212800FE010A4329690139090601F0FE410A4303
:102138001A64DA6A22F4406269690A43DA62DA6A7E
:1021480022F40072A9690A43DA62DA6A22F4807218
:10215800DA62596C1B4A0A40E96942EAC1025A64C8
:10216800DA6A42F48072DA62C6B91A46DB6A43F464
:102178008003D362124A136843F08053136001F05E
:102188002DF904460E4B1B6813F0005F14D101F0C3
:1021980025F9001B0228F5D90320ABE7012E05D04D
:1021A800074AD36A43F08073D362E3E7044AD36AE9
:1021B80043F40003D362DDE700209BE7012070476A
:1021C800004402580700FFFFF8B50446036813F0FF
:1021D800006F30D0836EB3F5001F26D00ED8EBB158
:1021E800B3F5801F07D102210830FFF7E1FE05464D
:1021F80045B12E4621E0012635461EE0B3F5401FC5
:1022080009D10025984A136D23F44013A16E0B439E
:102218001365002611E0012635460EE0924AD36A7E
:1022280043F40033D3620025ECE702212830FFF79E
:1022380045FF0546DCE700263546236813F4807F12
:1022480014D0A36D042B32D8DFE803F003232A0847
:102258000800854AD36A43F40033D36255BB824AE7
:10226800136D23F00703A16D0B431365236813F463
:10227800007F31D0E36D802B4CD020D8002B43D089
:10228800402B19D1002104F10800FFF791FE054603
:102298001AE0002104F10800FFF78AFE0546DDE791
:1022A800002104F12800FFF709FF0546D6E70126BB
:1022B8003546DBE72E46D9E7012635460CE0C02B2C
:1022C80002D0B3F5807F1CD15DBB674A136D23F440
:1022D800E073E16D0B431365236813F4806F46D0F8
:1022E800D4F8A830B3F5800F39D01FD88BB3B3F525
:1022F800001F18D1002104F10800FFF759FE054618
:102308001AE001263546E7E7574AD36A43F4003313
:10231800D362D9E7002104F12800FFF7CFFE054674
:10232800D2E72E46D8E70126354620E0B3F5C00FA0
:1023380002D0B3F5000F09D1C5B94B4A936D23F408
:102348006003D4F8A8100B43936510E001263546C6
:102358000DE0454AD36A43F40033D362ECE7002129
:1023680004F12800FFF7AAFE0546E5E72E46236894
:1023780013F4006F24D0D4F8AC30B3F1007F42D00E
:102388000ED8002B39D0B3F1807F06D1002104F19B
:102398000800FFF70DFE054608E0012635460FE068
:1023A800B3F1407F02D0B3F1806F23D1002D31D13A
:1023B8002D4A936D23F0E063D4F8AC100B4393657A
:1023C800236813F0007F2ED0E36C202B40D026D852
:1023D80033B1102B20D1244AD36A43F40033D3629B
:1023E800002D3CD1204AD36C23F03003E16C0B4321
:1023F800D36418E001263546E2E71B4AD36A43F462
:102408000033D362D2E7002104F12800FFF756FE1B
:102418000546CBE72E46D3E70126354603E0302BA9
:10242800DED001263546236813F4805F2DD0236E55
:10243800B3F5005F4FD019D8002B46D0B3F5805FB5
:102448000FD1002104F10800FFF7B2FD054613E0A3
:10245800022104F10800FFF7ABFD0546C0E72E4650
:10246800E1E70126354610E000440258B3F5405F25
:1024780002D0B3F5804F25D1002D33D1774A136DA3
:1024880023F4E043216E0B431365236813F4005FC4
:1024980038D0636EB3F5003F53D028D843B1B3F5B5
:1024A800803F21D1012104F10800FFF781FD054695
:1024B800002D4DD1694A136D23F4E023616E0B435F
:1024C80013651FE001263546DFE7644AD36A43F403
:1024D8000033D362D0E7002104F12800FFF7EEFDB6
:1024E8000546C9E72E46D0E7012635460AE0B3F58A
:1024F800802FDDD0B3F5A02FDAD0B3F5403FD7D089
:1025080001263546236813F4804F31D0D4F8B03013
:10251800B3F1005F45D020D843B1B3F1805F19D142
:10252800012104F10800FFF743FD0546002D3FD1C6
:102538004A4A936D23F0E043D4F8B0100B439365F7
:1025480016E0012104F12800FFF7B8FD0546AFE7C2
:102558002E46D7E7012635460AE0B3F1804FE5D08D
:10256800B3F1A04FE2D0B3F1405FDFD0012635468A
:10257800236813F4004F09D0236FB3F1805F19D09B
:10258800B3F1005F24D0D3B101263546236813F098
:10259800807F33D0A36C032B5BD8DFE803F02722BE
:1025A8005327012104F12800FFF788FD0546BDE700
:1025B8002E46DDE7294AD36A43F40033D36275B95E
:1025C800264A136D23F04053216F0B431365DDE753
:1025D800012104F10800FFF7EBFC0546EFE72E4662
:1025E800D4E71E4AD36A43F40033D362A5BB1B4A1F
:1025F800D36C23F00303A16C0B43D364236813F457
:10260800800F2DD1236813F0010F00F0A580E36F30
:10261800282B00F29F80DFE803F08D9D9D9D9D9DF6
:102628009D9D879D9D9D9D9D9D9D969D9D9D9D9DEF
:102638009D9D8D9D9D9D9D9D9D9D8D9D9D9D9D9DE2
:102648009D9D8D00022104F10800FFF7B1FC0546AD
:10265800CCE701263546D1E72E46CFE7004402589D
:10266800914A136843F48073136000F0B7FE07467D
:102678008D4B1B6813F4807F05D100F0AFFEC01BA3
:102688006428F5D90325002D4AD1884B1B6FD4F84F
:10269800B420534013F4407F0CD0844B1A6F22F4BB
:1026A8004072196F41F480311967196F21F4803134
:1026B80019671A67D4F8B430B3F5807F15D08DBB8D
:1026C800D4F8B43003F44072B2F5407F1ED0774A94
:1026D800136923F47C53136174490B6FD4F8B42045
:1026E800C2F30B0213430B678CE700F077FE074633
:1026F8006E4B1B6F13F0020FE1D100F06FFEC01B91
:1027080041F288339842F3D90325D8E7674802692C
:1027180022F47C52664901EA131313430361DBE791
:102728002E466FE72E466DE7012104F10800FFF7FA
:102738003FFC0546E5B95D4A536D23F03803E16F68
:102748000B43536508E0012104F12800FFF7B6FCAC
:102758000546EFE701263546236813F0020F17D028
:10276800A36F052B28D8DFE803F00B05200B0B0B14
:102778002E46F1E7012104F10800FFF719FC054690
:10278800EDB94A4A536D23F00703A16F0B43536514
:10279800236813F0040F23D0D4F89430052B45D8C0
:1027A800DFE803F0150F3D151515012104F1280088
:1027B800FFF784FC0546E3E701263546E8E72E46A1
:1027C800E6E7012104F10800FFF7F2FB054685BBA7
:1027D800364A936D23F00703D4F894100B4393659E
:1027E800236813F0200F34D0D4F89030B3F1005F91
:1027F8004ED023D843B1B3F1805F1CD1002104F13E
:102808000800FFF7D5FB0546002D48D1274A536D30
:1028180023F0E043D4F890100B43536519E00121ED
:1028280004F12800FFF74AFC0546D0E701263546A3
:10283800D6E72E46D4E7012635460AE0B3F1804FA5
:10284800E2D0B3F1A04FDFD0B3F1405FDCD0012676
:102858003546236813F0400F37D0D4F89C30B3F5D1
:10286800006F53D026D843B1B3F5806F19D100213A
:1028780004F10800FFF79CFB0546002D4DD10B4ADB
:10288800936D23F4E053D4F89C100B4393651CE03C
:10289800022104F12800FFF711FC0546B4E72E4693
:1028A800D7E70126354610E0004802580044025890
:1028B800CFFFFF00B3F5805FDFD0B3F5A05FDCD0BA
:1028C800B3F5406FD9D001263546236813F0800F41
:1028D80033D0D4F8A030B3F5804F00F0A38021D8CE
:1028E80043B1B3F5005F1AD1002104F10800FFF7E6
:1028F8005FFB0546002D40F09C80814A936D23F4D0
:102908006043D4F8A0100B43936516E0022104F14C
:102918002800FFF7D3FB0546AFE72E46D5E701268B
:1029280035460AE0B3F5004FE4D0B3F5204FE1D0C7
:10293800B3F5C04FDED001263546236813F0080FE3
:102948000CD0D4F88430B3F5805F74D06C4A536DE2
:1029580023F44053D4F884100B435365236813F0D1
:10296800100F0CD0D4F89830B3F5807F6CD0644A3F
:10297800936D23F44073D4F898100B439365236840
:1029880013F4002F0BD0D4F8A430B3F5803F74D0E3
:10299800B3F5003F67D0002B5FD00126354623688A
:1029A80013F4802F0CD0D4F88830B3F5001F7CD0F6
:1029B800B3F5401F6FD0B3F5801F67D001263546A9
:1029C800236813F4803F08D0236D002B76D0B3F52D
:1029D800803F00F0818001263546236813F0005FB0
:1029E80040F08380236813F4003F00F08E80D4F811
:1029F8008030B3F5807F00F0EC8040F28380B3F53F
:102A0800007F03D0B3F5407F40F0E180002D40F017
:102A1800E6803B4A536D23F44073D4F880100B438F
:102A2800536572E0022104F12800FFF747FB0546D1
:102A380060E72E4681E7022104F12800FFF73EFBFC
:102A4800002883D0012681E7022104F12800FFF73E
:102A580035FB00288BD0012689E7002104F1080006
:102A6800FFF7A6FA05467DB9254A936D23F440334E
:102A7800D4F8A4100B43936591E7022104F12800D0
:102A8800FFF71CFB0546EEE72E4688E71C4AD36A8B
:102A980043F40033D3627DB9194A536D23F44013CC
:102AA800D4F888100B4353658AE7012104F1280004
:102AB800FFF704FB0546EEE72E4681E7104AD36A86
:102AC80043F40033D36275B90D4AD36C23F48033D1
:102AD800216D0B43D36480E7022104F10800FFF75E
:102AE80067FA0546EFE72E4677E7022104F128004A
:102AF800FFF7E4FA00283FF475AF012672E700BF3C
:102B080000440258002B81D00126236813F4801F4B
:102B180006D04F4A136D23F00043616F0B431365D2
:102B2800236813F0805F07D0494A136923F4804370
:102B3800D4F8B8100B431361236813F4001F06D0B0
:102B4800434A136D23F08073E16E0B4313652368CA
:102B580013F0804F09D03E4B1A6922F400421A61E3
:102B68001A69D4F8BC100A431A612368002B06DAE4
:102B7800374AD36C23F04053616D0B43D364236809
:102B880013F4000F07D0324A536D23F44003D4F8EE
:102B98008C100B435365636813F0010F21D16368F0
:102BA80013F0020F26D1636813F0040F2BD163686A
:102BB80013F0080F30D1636813F0100F35D1636834
:102BC80013F0200F3AD106B101263046F8BD012690
:102BD8009BE71F4AD36A43F40033D36216E72E46B5
:102BE80093E7002104F10800FFF7E2F90028D6D0A6
:102BF8000646D4E7012104F10800FFF7D9F90028B7
:102C0800D1D00646CFE7022104F10800FFF7D0F93A
:102C18000028CCD00646CAE7002104F12800FFF7B7
:102C28004DFA0028C7D00646C5E7012104F128005F
:102C3800FFF744FA0028C2D00646C0E7022104F193
:102C48002800FFF73BFA0028BDD00646BBE700BFC7
:102C58000044025808B5FFF765F9054B1B6AC3F332
:102C68000213044AD35C03F01F03D84008BD00BF19
:102C7800004402588C46000810B5774A916A946A55
:102C8800C4F3053ED36AC3F3001CD36BC3F3CC0370
:102C98000CFB03F314F47C3F00F0D88001F003012F
:102CA80007EE903AF8EE677A012965D0022900F01C
:102CB800B080E1B107EE10EAB8EE477A9FED676A97
:102CC800C6EE076A644B9B6BC3F3080307EE103A22
:102CD800B8EE477A9FED626A67EE867A77EE277AD2
:102CE800B7EE007A77EE877A66EEA76A60E0136837
:102CF80013F0200F23D011461268C2F3C102594BBA
:102D0800D34007EE103AB8EE477A06EE90EAB8EEEE
:102D1800666AC7EE066A8B6BC3F3080307EE103AC0
:102D2800B8EE477A9FED4E6A67EE867A77EE277A95
:102D3800B7EE007A77EE877A66EEA76A38E007EE94
:102D480010EAB8EE477A9FED486AC6EE076A424B2A
:102D58009B6BC3F3080307EE103AB8EE477A9FED72
:102D6800406A67EE867A77EE277AB7EE007A77EED2
:102D7800877A66EEA76A1BE007EE10EAB8EE477A94
:102D88009FED366AC6EE076A334B9B6BC3F30803A5
:102D980007EE103AB8EE477A9FED316A67EE867A09
:102DA80077EE277AB7EE007A77EE877A66EEA76A2B
:102DB800294A936BC3F3462307EE103AB8EE477AD5
:102DC800B7EE006A37EE067AC6EE877AFCEEE77A47
:102DD800C0ED007A936BC3F3064307EE103AB8EEE2
:102DE800477A37EE067AC6EE877AFCEEE77AC0EDC8
:102DF800017A936BC3F3066307EE903AF8EE677AAD
:102E080077EE867A86EEA77ABCEEC77A80ED027AEC
:102E180010BD07EE10EAB8EE477A9FED146AC6EEC9
:102E2800076A0D4B9B6BC3F3080307EE103AB8EE25
:102E3800477A9FED0B6A67EE867A77EE277AB7EEC8
:102E4800007A77EE877A66EEA76AB1E70023036017
:102E580043608360DCE700BF004402580024744AE2
:102E6800000000390090D0030024744C0024F44A78
:102E780010B5774A916A946AC4F3055ED36AC3F3BE
:102E8800002C536CC3F3CC030CFB03F314F07C7FCE
:102E980000F0D88001F0030107EE903AF8EE677A67
:102EA800012965D0022900F0B080E1B107EE10EAEF
:102EB800B8EE477A9FED676AC6EE076A644B1B6CEB
:102EC800C3F3080307EE103AB8EE477A9FED626A3B
:102ED80067EE867A77EE277AB7EE007A77EE877A0A
:102EE80066EEA76A60E0136813F0200F23D011463E
:102EF8001268C2F3C102594BD34007EE103AB8EE3C
:102F0800477A06EE90EAB8EE666AC7EE066A0B6C78
:102F1800C3F3080307EE103AB8EE477A9FED4E6AFE
:102F280067EE867A77EE277AB7EE007A77EE877AB9
:102F380066EEA76A38E007EE10EAB8EE477A9FED2A
:102F4800486AC6EE076A424B1B6CC3F3080307EED8
:102F5800103AB8EE477A9FED406A67EE867A77EEC8
:102F6800277AB7EE007A77EE877A66EEA76A1BE0D3
:102F780007EE10EAB8EE477A9FED366AC6EE076AA2
:102F8800334B1B6CC3F3080307EE103AB8EE477ACD
:102F98009FED316A67EE867A77EE277AB7EE007A88
:102FA80077EE877A66EEA76A294A136CC3F346233D
:102FB80007EE103AB8EE477AB7EE006A37EE067AAF
:102FC800C6EE877AFCEEE77AC0ED007A136CC3F39D
:102FD800064307EE103AB8EE477A37EE067AC6EEA1
:102FE800877AFCEEE77AC0ED017A136CC3F30663C7
:102FF80007EE903AF8EE677A77EE867A86EEA77A49
:10300800BCEEC77A80ED027A10BD07EE10EAB8EE82
:10301800477A9FED146AC6EE076A0D4B1B6CC3F323
:10302800080307EE103AB8EE477A9FED0B6A67EE91
:10303800867A77EE277AB7EE007A77EE877A66EEA9
:10304800A76AB1E70023036043608360DCE700BF41
:10305800004402580024744A000000390090D0034C
:103068000024744C0024F44AF0B583B000236BE0CC
:1030780085685E000324B44025EA0405CC68B440A2
:103088002C438460446824EA0C0C4C68C4F3001494
:103098009C4044EA0C04446068E0DD08083550F8B8
:1030A800256003F007044FEA840C0F2404FA0CF49B
:1030B80026EA040E0C6904FA0CF444EA0E0440F8FB
:1030C80025406BE0092400E0002404FA0EF42C43A8
:1030D8000CF1020C694D45F82C404FF0B0442568BE
:1030E800D44325EA02064F6817F4801F01D042EA4C
:1030F80005064FF0B0452E606D6804EA05064F6876
:1031080017F4001F01D042EA05064FF0B0456E6083
:10311800D5F8845004EA05064F6817F4003F01D03B
:1031280042EA05064FF0B045C5F88460D5F88050EE
:103138002C404E6816F4803F01D042EA05044FF057
:10314800B042C2F8804001330A6832FA03F400F052
:1031580092804FF0010C0CFA03FC1CEA0202F2D038
:103168004C6804F00304013C012C81D94C6804F03C
:103178000304032C0CD0C4685D004FF0030C0CFA58
:1031880005FC24EA0C0C8C68AC4044EA0C04C460CE
:103198004C6804F00304022C3FF47FAF04684FEA44
:1031A800430E4FF0030C0CFA0EFC24EA0C0C4C688E
:1031B80004F0030404FA0EF444EA0C0404604C68B6
:1031C80014F4403FBFD02E4CD4F8F45045F002051B
:1031D800C4F8F450D4F8F44004F002040194019CBB
:1031E8004FEA930C0CF10205244C54F8255003F0D7
:1031F80003044FEA840E0F2404FA0EF425EA0405AA
:10320800204CA0423FF460AF04F58064A04222D075
:1032180004F58064A04220D004F58064A0421ED04A
:1032280004F58064A0421CD004F58064A0421AD042
:1032380004F58064A04218D004F58064A04216D03A
:1032480004F58064A04214D004F58064A0423FF4E1
:1032580039AF0A2439E7012437E7022435E7032484
:1032680033E7042431E705242FE706242DE7072454
:103278002BE7082429E703B0F0BD00BF000400587D
:1032880000440258000002580369194201D0012085
:103298007047002070470AB1816170470904816155
:1032A8007047436901EA030221EA030141EA024146
:1032B80081617047134BDB6813F0040F07D1114B82
:1032C800DB6803F0070383421AD00120704710B56A
:1032D8000C4AD36823F007031843D06000F07EF847
:1032E8000446084B5B6813F4005F07D100F076F8DA
:1032F800001BB0F57A7FF4D9012000E0002010BD52
:103308000020704700480258024AD36843F080738F
:10331800D360704700480258104B1B780BB9012046
:10332800704710B504464FF47A70B0FBF3F30C4ABB
:103338001068B0FBF3F0FDF75FFD68B90F2C01D9F9
:1033480001200AE0002221464FF0FF30FDF71EFD64
:10335800044B1C60002000E0012010BD000000208C
:10336800080000200400002010B50320FDF7FCFC35
:10337800FEF794FB0F498B69C3F303230E4AD35C12
:1033880003F01F03D8408B6903F00F03D35C03F0ED
:103398001F0320FA03F3094A1360094B1860002041
:1033A800FFF7BAFF10B10124204610BD0446FDF70F
:1033B80001FBF9E7004402588C4600080C00002085
:1033C80008000020034B1B78034A11680B44136064
:1033D800704700BF00000020CC070020014B186890
:1033E800704700BFCC07002038B50446FFF7F6FF4A
:1033F8000546B4F1FF3F02D0044B1B781C44FFF78D
:10340800EDFF401BA042FAD338BD00BF00000020EA
:10341800014B1868000C70470010005C034A5368A1
:1034280023F4600303435360704700BF000400584F
:10343800026852E8003F23F4907342E80031002903
:10344800F6D1026802F1080353E8001F0D4B0B4048
:10345800083242E800310029F3D1C36E012B06D0AF
:103468002023C0F88C300023C36643677047026886
:1034780052E8003F23F0100342E800310029F6D15A
:10348800EEE700BFFEFFFFEF70B586B004460168A7
:1034980083680269134342691343C2691343086886
:1034A800884A024013430B602268536823F4405350
:1034B800E1680B435360A1692268834B9A4201D0AB
:1034C800236A19439068814B03400B439360226839
:1034D800D36A23F00F03616A0B43D36222687C4BE3
:1034E8009A4221D07B4B9A4200F08C807A4B9A42C8
:1034F80000F0A280794B9A4200F0B580784B9A424E
:1035080000F0C880774B9A4200F0F480764B9A42DC
:1035180000F01981754B9A4200F02C816A4B9A424F
:1035280000F03F81802333E0714B5B6D03F038037B
:10353800282B65D8DFE813F02900640064006400D4
:1035480064006400640064004D0164006400640069
:1035580064006400640064002B006400640064007C
:1035680064006400640064005E0064006400640039
:103578006400640064006400600064006400640027
:1035880064006400640064006200012300E0082312
:103598004D498A4200F02F81E069B0F5004F00F0F4
:1035A800AF81202B00F20782202B00F25182DFE846
:1035B80013F01E0224024F024F0227024F024F024D
:1035C8004F022C024F024F024F024F024F024F028E
:1035D8004F0231024F024F024F024F024F024F0279
:1035E8004F024F024F024F024F024F024F024F024B
:1035F8004F023D021023CBE72023C9E74023C7E74A
:103608008023C5E73A4B5B6D03F00703052B11D800
:10361800DFE813F00600E10008000A000C000E00C5
:103628000023B5E70823B3E71023B1E72023AFE76A
:103638004023ADE78023ABE72D4B5B6D03F0070319
:10364800052B0ED8DFE803F003C90507090B002393
:103658009EE708239CE710239AE7202398E7402356
:1036680096E7802394E7224B5B6D03F00703052B55
:103678000ED8DFE803F003B40507090B002387E73A
:10368800082385E7102383E7202381E740237FE78A
:1036980080237DE7164B5B6D03F00703052B0ED8DF
:1036A800DFE803F0039F0507090B002370E70823F1
:1036B8006EE710236CE720236AE7402368E780233E
:1036C80066E700BFF369FFCF000C0058FFF4FF1155
:1036D800001001400044004000480040004C0040F9
:1036E800005000400014014000780040007C004079
:1036F800004402587D4B5B6D03F03803282B20D81B
:10370800DFE803F0151F1F1F1F1F1F1F711F1F1F3B
:103718001F1F1F1F171F1F1F1F1F1F1F191F1F1FBF
:103728001F1F1F1F1B1F1F1F1F1F1F1F1D000123E0
:103738002EE708232CE710232AE7202328E7402335
:1037480026E7802324E7694B5B6D03F00703052B0D
:103758000ED8DFE803F0034A0507090B002317E733
:10376800082315E7102313E7202311E740230FE769
:1037780080230DE75D4B5B6D03F00703052B0ED827
:10378800DFE803F003350507090B002300E70823EA
:10379800FEE61023FCE62023FAE64023F8E6802321
:1037A800F6E603F50E339B6D03F00703052B0ED8E1
:1037B800DFE803F0031F0507090B0223E8E60823E7
:1037C800E6E61023E4E62023E2E64023E0E6802351
:1037D800DEE60423DCE60423DAE60423D8E6042341
:1037E800D6E60423D4E60423D2E60423D0E6042351
:1037F800CEE60423CCE6202B27D8022BC0F01A8172
:10380800023B1E2B00F21881DFE813F0500016016E
:1038180056001601160116015B0016011601160165
:10382800160116011601160160001601160116018F
:1038380016011601160116011601160116011601C8
:1038480016011601160116016C00402B2CD14FF4FD
:103858000040626A264B33F81220B0FBF2F3656829
:1038680005EB4501994200F2E980B3EB053F00F210
:10387800E780002633463146FCF72AFD090241EA73
:10388800106100026B08C0182A46334641F1000156
:10389800FCF71EFDA0F54072164B9A4200F2D2804A
:1038A8002368D8603046D4E00120D2E0FFF7D2F98F
:1038B8000028CED10020CCE003A8FFF7DDF904985A
:1038C800F6E76846FFF7D4FA0198F1E7074B1B685B
:1038D80013F0200F08D0054B1B68C3F3C10306483B
:1038E800D840E5E70548B4E70348B2E70044025882
:1038F80064460008FFFC0F000090D00300093D005B
:10390800202B15D8202B00F29F80DFE803F03137F9
:103918009D9D3A9D9D9D3F9D9D9D9D9D9D9D449DE9
:103928009D9D9D9D9D9D9D9D9D9D9D9D9D9D5000A9
:10393800402B1BD1626A4D4B33F81230B0FBF3F0C9
:103948006268530803EB4000B0FBF2F0A0F11002EC
:103958004FF6EF739A4279D883B223F00F03C0F37E
:10396800420018432368D860002072E0012070E00C
:10397800FEF7FAFA0028DDD100206AE0FEF706FB20
:10398800F8E703A8FFF778F90498F3E76846FFF724
:103998006FFA0198EEE7364B1B6813F0200F08D03A
:1039A800334B1B68C3F3C1033248D840E2E73248BF
:1039B800C0E73048BEE7402B17D14FF40040626A99
:1039C8002A4B33F81230B0FBF3F0636800EB530076
:1039D800B0FBF3F0A0F110024FF6EF739A4242D811
:1039E800236880B2D860002033E0012031E0FEF780
:1039F800BBFA0028E3D100202BE0FEF7C7FAF8E76E
:103A080003A8FFF739F90498F3E76846FFF730FA97
:103A18000198EEE7164B1B6813F0200F08D0144BE3
:103A28001B68C3F3C1031348D840E2E71248C6E74E
:103A38001048C4E701200CE001200AE0012008E05A
:103A4800012006E0012004E0012002E0012000E05E
:103A580001200123A4F86A30A4F8683000236367C2
:103A6800A36706B070BD0120F3E700BF64460008F5
:103A7800004402580090D00300093D00836A13F007
:103A8800010F06D00268536823F40033C16A0B4360
:103A98005360836A13F0020F06D00268536823F458
:103AA8008033016B0B435360836A13F0040F06D015
:103AB8000268536823F48023416B0B435360836A85
:103AC80013F0080F06D00268536823F40043816B93
:103AD8000B435360836A13F0100F06D00268936893
:103AE80023F48053C16B0B439360836A13F0200F58
:103AF80006D00268936823F40053016C0B4393606B
:103B0800836A13F0400F0AD00268536823F48013C5
:103B1800416C0B435360436CB3F5801F0BD0836A31
:103B280013F0800F06D00268536823F40023C16C99
:103B38000B43536070470268536823F4C003816CD9
:103B48000B435360EBE72DE9F84305460F4616464D
:103B58009946DDF820802C68E46937EA04030CBF35
:103B68004FF0010C4FF0000CB44532D1B8F1FF3FD3
:103B7800F1D0FFF733FCA0EB090040452CD8B8F191
:103B8800000F2BD02B681A6812F0040FE3D0DA6903
:103B980012F0080F11D1DA6912F4006FDBD04FF47C
:103BA80000621A622846FFF743FC2023C5F89030CC
:103BB800002385F8843003200CE008241C62284682
:103BC800FFF736FCC5F89040002385F884300120C3
:103BD80000E00020BDE8F8830320FBE70320F9E7B5
:103BE8002DE9F04182B01E46D0F88830202B5BD1F9
:103BF80004460D469046002A18BF002901D101202D
:103C080053E00023C0F890302123C0F88830FFF734
:103C1800E5FB0746A4F85480A4F85680A368B3F5DA
:103C2800805F02D04FF0000816E0236943B34FF0DD
:103C3800000811E02023C4F88830032035E038F864
:103C4800023B2268C3F308039362B4F8562092B289
:103C5800013A92B2A4F85620B4F856309BB293B108
:103C680000963B46002280212046FFF76CFF002883
:103C7800E0D1002DE3D015F8012B23689A62E4E720
:103C8800A8460025E8E700963B460022402120464A
:103C9800FFF759FF18B92023C4F8883005E020231E
:103CA800C4F88830032000E0022002B0BDE8F081AB
:103CB80030B583B004460023C0F89030FFF78EFB80
:103CC80005462268126812F0080F10D123681B6895
:103CD80013F0040F28D12023C4F88830C4F88C309E
:103CE8000020E066206784F8840003B030BD6FF0E0
:103CF8007E430093034600224FF400112046FFF74D
:103D080022FF0028E2D0226852E8003F23F0800317
:103D180042E800310029F6D12023C4F88830002376
:103D280084F884300320E0E76FF07E4300932B464D
:103D380000224FF480012046FFF705FF0028CAD073
:103D4800226852E8003F23F4907342E800310029CA
:103D5800F6D1226802F1080353E8003F23F001037B
:103D6800083242E800310029F3D12023C4F88C300E
:103D7800002384F884300320B7E778B310B50446ED
:103D8800D0F888300BB32423C4F88830226813682D
:103D980023F0010313602046FFF776FB012813D0B8
:103DA800A36ABBB92268536823F49043536022681E
:103DB800936823F02A0393602268136843F0010391
:103DC80013602046FFF774FF10BD80F88430FCF7BD
:103DD80021FFD8E72046FFF751FEE3E701207047AF
:103DE800436E2BB90123A0F86A30A0F868307047F9
:103DF80030B403689A68C2F342629968490F094D62
:103E08006B5C1B01084C615C93FBF1F3A0F86A3012
:103E1800AB5C1B01A25C93FBF2F3A0F8683030BCEA
:103E2800704700BF844600087C46000890F884303C
:103E3800012B18D0012380F884302423C0F888305F
:103E480003681A68196821F00101196022F000520C
:103E58000023436601680A602022C0F8882080F8A1
:103E68008430184670470220704738B590F884307F
:103E7800012B1DD00446012380F884302423C0F888
:103E8800883003681D681A6822F001021A60026807
:103E9800936823F0604319439160FFF7A1FF2368FB
:103EA8001D602023C4F88830002084F8840038BDC1
:103EB8000220FCE738B590F88430012B1DD0044669
:103EC800012380F884302423C0F8883003681D68F3
:103ED8001A6822F001021A600268936823F060638E
:103EE80019439160FFF77CFF23681D602023C4F805
:103EF8008830002084F8840038BD0220FCE770B5C3
:103F08008AB0002800F097800546046890F8BD3410
:103F18003BB3032385F8BD34E36B13F4807F01D1F1
:103F28000023EB60286800F013F92C4654F8106B56
:103F3800EC460FCCACE80F000FCCACE80F0094E8CF
:103F480003008CE803002B1D0ECB304600F0B2F8BE
:103F5800044658B1022385F8BD34012420460AB02E
:103F680070BD80F8BC34FCF7A1FED2E700212868B8
:103F780000F020FA234616E003EBC30205EB8202A9
:103F8800012182F83D1082F83C30A2F85630002119
:103F980082F840105164916403EBC30205EB82027E
:103FA800D1640133DBB269688B42E5D316E004EBD8
:103FB800C40305EB8303002283F87D2283F87C4247
:103FC80083F88022C3F88422C3F8882204EBC40350
:103FD80005EB8303C3F88C220134E4B2A142E6D88E
:103FE8002C4654F8106BEC460FCCACE80F000FCC05
:103FF800ACE80F0094E803008CE803002B1D0ECBFF
:10400800304600F001F9044660B9002385F83830DD
:10401800012385F8BD346B6A012B08D0286800F0AD
:10402800B7F99BE7022385F8BD34012496E72846B3
:1040380000F004F8F2E7012490E700000346026864
:104048000121C0F80015002083F8F404936943F0B7
:1040580000639361516D024B0B435365704700BF7A
:104068000300001082B000230193019B01330193E8
:10407800019A0F4B9A4215D80369002BF5DA0023F1
:104088000193036943F001030361019B0133019329
:10409800019A074B9A4208D8036913F0010FF4D12B
:1040A800002000E0032002B070470320FBE700BFB8
:1040B800400D030084B010B5044603A880E80E0044
:1040C800089B012B1DD1A36B23F48033A363E26803
:1040D8001D4B1340E360E36823F44013E3600F9B38
:1040E800012B09D02046FFF7BDFF059B012B1BD0F4
:1040F800BDE8104004B07047E36843F48013E36000
:10410800F0E7E36843F04003E3602046FFF7AAFFC7
:104118000C9B23B9A36B43F48033A363E5E7A36B3C
:1041280023F48033A363E0E7E36D9BB2E365E26DBC
:10413800064B1343E365A36843F00603A360A36833
:1041480043F02003A360D3E7BFFFBDFF0000EE03E9
:10415800836823F0010383600020704782B0002346
:104168000193019B01330193019A0F4B9A4215D891
:104178000369002BF5DA00230193890141F020013E
:104188000161019B01330193019A074B9A4208D8B8
:10419800036913F0200FF4D1002000E0032002B0DF
:1041A80070470320FBE700BF400D030082B00023E7
:1041B8000193019B01330193019A0E4B9A4213D844
:1041C8000369002BF5DA0023019310230361019B97
:1041D80001330193019A074B9A4208D8036913F0F7
:1041E800100FF4D1002000E0032002B07047032034
:1041F800FBE700BF400D0300D0F800381943C0F8B2
:10420800001800207047000084B02DE9F0410446F2
:1042180007A880E80E00002306E003F1400204EB43
:1042280082020021516001330E2BF6D9119F27BB62
:10423800D4F8043843F00203C4F80438A36B23F419
:104248000013A363236843F040032360236843F00B
:10425800800323600023C4F8003E04F50065D4F809
:104268000038C4F800380C9B012B10D10A9B4BB9BD
:1042780000212046FFF7C0FF0DE0A36B43F40013B5
:10428800A363E7E701212046FFF7B6FF03E0032118
:104298002046FFF7B1FF10212046FFF75FFF804659
:1042A80008B14FF001082046FFF780FF08B14FF032
:1042B800010800232B616B61EB610AE0C3B94FF081
:1042C8000060C2F8000900220A614FF67F328A6056
:1042D80001330799994210D904EB431202F5106192
:1042E800D2F800090028E9DB0020C2F80009EAE753
:1042F8004FF09040C2F80009E5E700230AE0C3B197
:104308004FF0904CC2F800CB002202614FF67F328A
:1043180082600133994211D904EB431202F53060EF
:10432800D2F8006B002EEADB4FF0000CC2F800CB8D
:10433800EAE74FF0006CC2F800CBE5E72B6923F4FD
:1043480080732B610023A3616FF080436361099B35
:104358001BB9A36943F01003A361A2690A4B134375
:10436800A3610D9B1BB1A36943F00803A361012F4F
:1043780004D04046BDE8F04104B07047A269034B41
:104388001343A361F5E700BF00383C8004000040F8
:10439800D0F8003E23F00303C0F8003ED0F80438FC
:1043A80043F00203C0F8043800207047406900F069
:1043B8000100704738B50546C36823F0C043C360A1
:1043C800012913D019BBC36843F08043C36000249C
:1043D8000120FFF709F801342846FFF7E7FF08B185
:1043E800312CF5D9322C14D0002038BDC36843F0E5
:1043F8000053C36000240120FEF7F6FF013428466D
:10440800FFF7D4FF0128EDD0312CF4D9EAE70120D9
:10441800EBE70120E9E70000274AD2F8883043F4A7
:104428007003C2F88830254B1B6803F00F03062B76
:1044380006D8224A136823F00F0343F007031360DA
:104448001F4B1A6842F001021A6000221A611968AB
:104458001C4A0A401A60194B1B6813F0080F06D053
:10446800164A136823F00F0343F007031360144B35
:1044780000229A61DA611A62134999621349D96272
:10448800134919635A639963DA6319645A6419689A
:1044980021F4802119601A660E4B1A680E4B1340DE
:1044A800B3F1005F03D20D4B0122C3F808210C4B76
:1044B80043F2D2021A60704700ED00E0002000527B
:1044C800004402587FEDF6EA000202020000FF01F4
:1044D800800201010010005C0000FFFF0080005115
:1044E80000400052002848D010B5044690F83530F6
:1044F800002B32D0022384F83530A3690BB1002396
:104508006362226811681E4B0B40136022681168B1
:10451800636860690343E068034320690343A06854
:104528000343A0690343206A0343606A0343A06A04
:104538000343E06A0343206B03430B431360636840
:10454800102B0DD02268D36843F01E03D3600020DF
:10455800E064012384F8353010BDFCF73DFAC9E763
:10456800237F627F43EA0223A27F43EA0243E17F7B
:10457800226843EA01639361E4E70120704700BFC2
:1045880007F0E0FFDFF834D0FFF746FF0C480D498D
:104598000D4A002302E0D458C4500433C4188C4296
:1045A800F9D30A4A0A4C002301E013600432A242FC
:1045B800FBD300F011F8FCF7C5F9704700000220A2
:1045C8000000002010000020AC460008D0000020A9
:1045D800D0070020FEE7000070B50D4D0D4C641BA0
:1045E800A4100026A64209D10B4D0C4C00F020F86F
:1045F800641BA4100026A64205D170BD55F8043BE3
:1046080098470136EEE755F8043B98470136F2E73C
:10461800A4460008A4460008A4460008A8460008C6
:1046280002440346934200D1704703F8011BF9E79F
:10463800F8B500BFF8BC08BC9E467047F8B500BF87
:08464800F8BC08BC9E46704757
:10465000546869735F646F6E27745F776F726B2144
:104660000D0A0000010002000400060008000A0014
:104670000C0010002000400080000001080402042B
:104680000801010101010103070100000000000011
:0C469000010203040102030406070809EC
:08469C006CBCFF7F010000006F
:0446A400BD0200084B
:0446A800990200086B
:1046AC0001000000100000000090D0030090D00327
:1046BC0000000000000000000000000000000000EE
:1046CC0000000000000000000000000000000000DE
:1046DC0000000000000000000000000000000000CE
:1046EC0000000000000000000000000000000000BE
:1046FC0000000000000000000000000000000000AE
:10470C00000000000000000000000000000000009D
:10471C00000000000000000000000000000000008D
:10472C00000000000000000000000000000000007D
:10473C00000000000000000000000000000000006D
:10474C00000000000000000000000000000000005D
:10475C00000000000000000000000000000000004D
:10476C00000000000000000000000000000000003D
:040000050800458D1D
:00000001FF
