:020000040800F2
:1000000000000220357C0008B50A0008B70A000885
:10001000B90A0008BB0A0008BD0A00080000000079
:10002000000000000000000000000000BF0A0008FF
:10003000C10A000800000000C30A0008C50A000841
:10004000857C0008857C0008857C0008857C00088C
:10005000857C0008857C0008857C0008857C00087C
:10006000857C0008857C0008857C0008CD0A000896
:10007000857C0008857C0008857C0008857C00085C
:10008000857C0008857C0008857C0008857C00084C
:10009000857C0008857C0008857C0008857C00083C
:1000A000857C0008857C0008857C0008857C00082C
:1000B000857C0008857C0008857C0008857C00081C
:1000C000857C0008857C0008857C0008857C00080C
:1000D000857C0008857C0008857C0008857C0008FC
:1000E000857C0008857C000800000000857C0008F5
:1000F000857C0008857C0008857C0008857C0008DC
:10010000857C0008857C0008857C0008857C0008CB
:10011000857C0008857C0008857C0008857C0008BB
:10012000857C0008857C0008857C0008857C0008AB
:10013000857C0008857C0008857C0008857C00089B
:1001400000000000000000000000000000000000AF
:10015000857C0008857C0008857C0008857C00087B
:10016000857C0008857C0008857C0008857C00086B
:10017000857C0008857C0008857C00080000000064
:10018000857C0008857C0008857C0008857C00084B
:10019000857C0008857C0008857C0008857C00083B
:1001A000857C0008857C0008857C0008857C00082B
:1001B000857C0008857C0008857C0008857C00081B
:1001C000857C0008857C0008857C0008857C00080B
:1001D000857C0008857C0008DD0A0008857C000815
:1001E000857C0008857C0008857C0008857C0008EB
:1001F000857C0008857C0008857C0008857C0008DB
:10020000857C0008857C0008857C0008857C0008CA
:10021000857C0008857C0008857C0008857C0008BA
:10022000857C0008857C0008857C000800000000B3
:10023000857C0008857C000800000000857C0008A3
:10024000857C0008857C0008857C0008857C00088A
:10025000857C0008857C0008857C0008857C00087A
:10026000857C0008857C0008857C0008857C00086A
:10027000857C0008857C0008857C00080000000063
:10028000857C0008857C0008857C00080000000053
:0802900000000000857C00085D
:1002980010B5054C237833B9044B13B10448AFF3B8
:1002A80000800123237010BDF00000200000000032
:1002B800E07C000808B5034B1BB103490348AFF3C2
:1002C800008008BD00000000F4000020E07C000869
:1002D80053B94AB9002908BF00281CBF4FF0FF31A5
:1002E8004FF0FF3000F074B9ADF1080C6DE904CEA1
:1002F80000F006F8DDF804E0DDE9022304B07047F9
:100308002DE9F047089D04468E46002B4DD18A42C0
:10031800944669D9B2FA82F252B101FA02F3C2F1F3
:10032800200120FA01F10CFA02FC41EA030E944084
:100338004FEA1C48210CBEFBF8F61FFA8CF708FBA5
:1003480016E341EA034306FB07F199420AD91CEB7D
:10035800030306F1FF3080F01F81994240F21C81AF
:10036800023E63445B1AA4B2B3FBF8F008FB1033F7
:1003780044EA034400FB07F7A7420AD91CEB04042C
:1003880000F1FF3380F00A81A74240F207816444FC
:10039800023840EA0640E41B00261DB1D440002381
:1003A800C5E900433146BDE8F0878B4209D9002DE5
:1003B80000F0EF800026C5E9000130463146BDE86F
:1003C800F087B3FA83F6002E4AD18B4202D38242D9
:1003D80000F2F980841A61EB030301209E46002D88
:1003E800E0D0C5E9004EDDE702B9FFDEB2FA82F2DD
:1003F800002A40F09280A1EB0C014FEA1C471FFA3B
:100408008CFE0126200CB1FBF7F307FB131140EA21
:1004180001410EFB03F0884208D91CEB010103F1EE
:10042800FF3802D2884200F2CB804346091AA4B2B0
:10043800B1FBF7F007FB101144EA01440EFB00FE84
:10044800A64508D91CEB040400F1FF3102D2A645E9
:1004580000F2BB800846A4EB0E0440EA03409CE788
:10046800C6F12007B34022FA07FC4CEA030C20FA35
:1004780007F401FA06F31C43F9404FEA1C4900FA55
:1004880006F3B1FBF9F8200C1FFA8CFE09FB1811D2
:1004980040EA014108FB0EF0884202FA06F20BD945
:1004A8001CEB010108F1FF3A80F08880884240F295
:1004B8008580A8F102086144091AA4B2B1FBF9F0D9
:1004C80009FB101144EA014100FB0EFE8E4508D9D4
:1004D8001CEB010100F1FF346CD28E456AD9023859
:1004E800614440EA0840A0FB0294A1EB0E01A1423E
:1004F800C846A64656D353D05DB1B3EB080261EBAC
:100508000E0101FA07F722FA06F3F1401F43C5E985
:10051800007100263146BDE8F087C2F12003D840BB
:100528000CFA02FC21FA03F3914001434FEA1C47FD
:100538001FFA8CFEB3FBF7F007FB10360B0C43EAEF
:10054800064300FB0EF69E4204FA02F408D91CEB9F
:10055800030300F1FF382FD29E422DD9023863449D
:100568009B1B89B2B3FBF7F607FB163341EA03413D
:1005780006FB0EF38B4208D91CEB010106F1FF388C
:1005880016D28B4214D9023E6144C91A46EA004683
:1005980038E72E46284605E70646E3E61846F8E615
:1005A8004B45A9D2B9EB020864EB0C0E0138A3E75E
:1005B8004646EAE7204694E74046D1E7D0467BE73F
:1005C800023B614432E7304609E76444023842E7B7
:1005D800704700BFF0B58DB00024079408940994C3
:1005E8000A940B94464BD3F8E02042F01002C3F86B
:1005F800E020D3F8E02002F010020092009AD3F82D
:10060800E02042F00402C3F8E020D3F8E02002F032
:1006180004020192019AD3F8E02042F08002C3F864
:10062800E020D3F8E02002F080020292029AD3F888
:10063800E02042F00102C3F8E020D3F8E02002F005
:1006480001020392039AD3F8E02042F00202C3F8B1
:10065800E020D3F8E02002F002020492049AD3F8D2
:10066800E02042F00802C3F8E020D3F8E02002F0CE
:1006780008020592059AD3F8E02042F04002C3F838
:10068800E020D3F8E03003F040030693069B1D4FAB
:10069800224644F20101384602F066FF1A4D22460E
:1006A8004FF49861284602F05FFF4FF40053079318
:1006B8000894099407A9154802F046FE44F201037C
:1006C80007930126089609940A9407A9384602F068
:1006D8003BFE4FF498630793089609940A9407A978
:1006E800284602F031FE802307934FF488130893BD
:1006F800099407A9064802F027FE0DB0F0BD00BF17
:100708000044025800040258000C0258000802581D
:100718000018025800B583B00F4BD3F8D82042F028
:100728000102C3F8D820D3F8D83003F001030193AD
:10073800019B002211460B2000F08AFC0B2000F0E0
:10074800BDFC00221146662000F082FC662000F005
:10075800B5FC03B05DF804FB0044025872B6FEE72E
:1007680008B50B480B4B0360092343600222026162
:100778000023C36082610122C26103624362826214
:10078800C262036305F035FE00B908BDFFF7E6FF56
:10079800500300200000084008B50B480B4B0360CD
:1007A8000023436020228260C36003614361836148
:1007B800036243628362C362036306F05DF900B9B2
:1007C80008BDFFF7CBFF00BF4C0100200000024826
:1007D80008B50A480A4B03600023436083604FF65C
:1007E800FF724261036243628362C362036306F07D
:1007F8007BFA00B908BDFFF7B1FF00BF180300205E
:100808000024004010B51448144B0360144B002218
:100818001A7080215970E1219970DA701A715A7131
:100828004360012303720F4BC3600F4B036140F217
:10083800F453436100F0A2FE58B90C4C3822002151
:10084800204607F041FA212323604FF440336361C7
:1008580010BDFFF783FF00BF140200200080024094
:100868000C0100209000002030000020140100201E
:1008780008B51548154B03604FF4E1334360002376
:100888008360C36003610C2242618361C3610362B8
:100898004362836205F0EBFC70B900210A4805F059
:1008A8005EFD58B90021084805F07EFD40B90648AC
:1008B80005F036FD30B908BDFFF750FFFFF74EFFD2
:1008C800FFF74CFFFFF74AFF5C0800200048004094
:1008D80008B51348134B0360A3F13E53A3F57D23DA
:1008E800A3F244634360002383600122C260036172
:1008F80043618361C361036204F0E0FD50B90021E4
:10090800074804F0B5FF38B90021054804F0DEFFB8
:1009180020B908BDFFF722FFFFF720FFFFF71EFFF2
:10092800C40200200054004000B59DB04C220021B4
:1009380009A807F0C9F92022002101A807F0C4F985
:10094800022004F04FFB00230093264BDA6A22F0C2
:100958000102DA62DB6A03F001030093224A936919
:1009680023F4404343F400439361936903F4404301
:100978000093009B1C4B9B6913F4005FFAD0032380
:1009880009934FF4A0230A9301220C9240230D935C
:100998000223129313931492182215921693042289
:1009A800179218930C23199300231A931B9309A8E1
:1009B80000F08AFE88B93F23019300230293039332
:1009C80004930593069307930893012101A801F066
:1009D800CFFA20B91DB05DF804FBFFF7BFFEFFF7A3
:1009E800BDFE00BF000400580048025800B5ADF62F
:1009F8008C1D04F051FBFFF797FFFFF7EBFDFFF7A6
:100A080089FEFFF7ADFEFFF7C7FEFFF7E1FEFFF730
:100A1800F9FEFFF72DFFFFF75BFF002006F070FBE4
:100A28001B4B1C4A1C491D4806F056FB1C4A05ABCB
:100A380007CA03C31A8006F090FF1A4B03F110028D
:100A480007CA8DE807000FCB07F05AF840210020AD
:100A580006F068FF0A2004F05FFB08A9012006F0F1
:100A6800BBFB0DF683120DF684110DF6861007F008
:100A7800CDF8642004F050FB06F0E2FB06F065FFB9
:100A880064230A2205A9084805F024FBD3E700BF20
:100A980018030020C40200209C0100204C01002003
:100AA800F87C0008000000205C080020FEE7FEE754
:100AB800FEE7FEE7FEE770477047704708B504F0A9
:100AC80019FB08BD08B5024803F026FC08BD00BFA5
:100AD8009C01002008B5024804F056FA08BD00BF82
:100AE8009C01002082B0074BD3F8F42042F00202A8
:100AF800C3F8F420D3F8F43003F002030193019B08
:100B080002B0704700440258F0B591B000230B932F
:100B18000C930D930E930F9302685C4B9A4201D08D
:100B280011B0F0BD04465A4BD3F8DC2042F0010264
:100B3800C3F8DC20D3F8DC2002F001020192019A0C
:100B4800D3F8E02042F01002C3F8E020D3F8E02008
:100B580002F010020292029AD3F8E02042F0010259
:100B6800C3F8E020D3F8E02002F001020392039AD0
:100B7800D3F8E02042F00402C3F8E020D3F8E020E4
:100B880002F004020492049AD3F8E02042F008022A
:100B9800C3F8E020D3F8E02002F008020592059A95
:100BA800D3F8E02042F00202C3F8E020D3F8E030A6
:100BB80003F002030693069B70230B9302270C97FE
:100BC8000D260F960BA9334802F0BEFB50230B935A
:100BD8000C9700250D950E950F960BA92E4802F03F
:100BE800B3FB4FF470730B930C970D950E950F96FE
:100BF8000BA92A4802F0A8FB08230B930C970D9524
:100C08000E950F960BA9264802F09EFB80230B93A6
:100C18000C970D950E950F960BA9224802F094FBA0
:100C28002148224B03604B2343608560C5604FF425
:100C3800806303614FF4805343614FF480438361C1
:100C4800C56105620423436203238362C5620563A9
:100C580002F0A4FEA0B9032307934FF400330893CE
:100C680001238DF8243000228DF825200A9307A946
:100C78000D4804F051F930B90B4BA3649C634FE75E
:100C8800FFF76CFDE7E7FFF769FDF5E700000248AD
:100C98000044025800100258000002580008025888
:100CA800000C0258000402589C0100201000024069
:100CB80070B58CB000230793089309930A930B939C
:100CC8000268434B9A4201D00CB070BD414BD3F837
:100CD800D82042F40042C3F8D820D3F8D82002F430
:100CE80000420092009AD3F8D82042F48032C3F828
:100CF800D820D3F8D82002F480320192019AD3F890
:100D0800D82042F40032C3F8D820D3F8D82002F40F
:100D180000320292029AD3F8E02042F00402C3F8AB
:100D2800E020D3F8E02002F004020392039AD3F8FB
:100D3800E02042F00102C3F8E020D3F8E02002F0FE
:100D480001020492049AD3F8E02042F00202C3F8A8
:100D5800E020D3F8E02002F002020592059AD3F8C9
:100D6800E02042F04002C3F8E020D3F8E03003F07E
:100D780040030693069B32230793022608960B2509
:100D88000B9507A9144802F0DFFA86230793089603
:100D9800002409940A940B9507A9104802F0D4FA84
:100DA8004FF400530793089609940A940B9507A9E2
:100DB8000B4802F0C9FA4FF4205307930896099498
:100DC8000A940B9507A9074802F0BEFA7CE700BF12
:100DD80000800240004402580008025800000258EF
:100DE800000402580018025810B5B8B00446002193
:100DF80033913491359136913791C02202A806F08B
:100E080063FF22681B4B9A4201D038B010BD0822FC
:100E18000023CDE9022302A801F046FB38BB164C9B
:100E2800D4F8E03043F00203C4F8E030D4F8E030FE
:100E380003F002030093009B4FF4107333931223C3
:100E480034930023359336930423379333A90B48FF
:100E580002F07AFAD4F8E83043F40013C4F8E83022
:100E6800D4F8E83003F400130193019BCDE7FFF7B2
:100E780075FCD4E7005400400044025800040258AE
:100E880010B5B2B00446C022002102A806F01CFF2B
:100E980022680F4B9A4201D032B010BD20220023A5
:100EA800CDE9022302A801F0FFFA68B9094BD3F88B
:100EB800E82042F40072C3F8E820D3F8E83003F4DD
:100EC80000730193019BE7E7FFF748FCEEE700BFDB
:100ED800002400400044025810B5B8B00446002170
:100EE80033913491359136913791C02202A806F09A
:100EF800EBFE22681B4B9A4201D038B010BD02228B
:100F08000023CDE9022302A801F0CEFA38BB164B24
:100F1800D3F8E82042F48022C3F8E820D3F8E82088
:100F280002F480220092009AD3F8E02042F00802EE
:100F3800C3F8E020D3F8E03003F008030193019BE5
:100F48004FF440733393022334930023359336933D
:100F58000723379333A9054802F0F6F9CDE7FFF7E1
:100F6800FDFBD4E70048004000440258000C02583A
:100F780070B5B8B00446002133913491359136915B
:100F88003791C02202A806F09FFE2268244B9A429D
:100F980001D038B070BD4FF480220023CDE9022380
:100FA8004FF48013249302A801F07EFA002833D16D
:100FB80004F042F81B4CD4F8E03043F00103C4F8C5
:100FC800E030D4F8E03003F001030093009B4FF4C5
:100FD800C8533393022334930025359536950A2355
:100FE8003793114E33A9304602F0AEF94FF400732F
:100FF80033933495359533A9304602F0A5F9D4F8E2
:10100800D83043F00063C4F8D830D4F8D83003F0AF
:1010180000630193019BBCE7FFF7A0FBC8E700BF93
:101028000000084000440258000002580649CB68F6
:1010380023F4E0631B041B0C000200F4E06003438C
:10104800024A1A43CA60704700ED00E00000FA0542
:1010580000B5174BDB68C3F30223C3F1070CBCF1DF
:10106800040F28BF4FF0040C03F1040EBEF1060F65
:1010780014D9033B4FF0FF3E0EFA0CFC21EA0C0199
:1010880099400EFA03F322EA03031943002807DB09
:101098000901C9B2074B19545DF804FB0023E9E7BD
:1010A80000F00F000901C9B2034B1954F4E700BF5F
:1010B80000ED00E000E400E014ED00E0002807DBAC
:1010C80000F01F02400901239340024A42F82030F1
:1010D800704700BF00E100E00138B0F1807F0BD21B
:1010E8004FF0E0235861054AF02182F823100020D0
:1010F800986107221A6170470120704700ED00E0EF
:1011080030B48B680A6813430A7943EAC2630A7BDE
:1011180043EAC2534A7B43EA82538A7B43EA4253F7
:10112800CA7B43EA02530A7C002A40F0B0804FF49D
:10113800002213434A7C002A40F0AB804FF400326F
:1011480013438A7C43EA02434A6913438A69134377
:101158000A7F43EA02334A7F43EAC2238A7F002A8E
:1011680040F099804FF480621343CA7F43EA4223D8
:1011780091F82020002A40F090804FF480721343A9
:101188004A6A134391F8282043EA0213CA6A1343B0
:101198000468226822F07F4222F47B0222F4FE4295
:1011A80022F07C0213432360CA6B91F838301B0687
:1011B80043EA426391F8302043EA824391F83120B0
:1011C80043EA424391F83220002A68D14FF4803232
:1011D80013434A6B13430468626822F07C5222F47A
:1011E800EF2222F4FF6222F007021343636091F8B2
:1011F80040204B6C43EA02220468E5682B4B2B40E5
:101208001343E36091F854200B6D43EA420391F8CD
:101218004C20002A45D1802213438A6C43EA0243BA
:101228000468226F22F0F2021204120C134323679F
:1012380091F8563091F8552043EA42020468D4F8F0
:10124800903023F003031343C4F890300268D2F8B7
:10125800003D23F072038C6D2343C2F8003DCB6D33
:1012680091F86020FAB94022134391F8612043EACB
:10127800021391F8622043EAC2030168D1F8302DC5
:1012880022F07B021343C1F8303D30BC7047002286
:101298004FE7002254E7002266E700226FE70022AA
:1012A80096E70022B8E70022DEE700BFF0FEFFFF66
:1012B80010B4026802F580521468244B23400C686D
:1012C800234313600A798B6843EA02330A7B43EAB3
:1012D800C232036803F5805CDCF804401C4B2340F1
:1012E8001343CCF8043091F80DC00B6A43EA0C4C58
:1012F800026802F58052D2F80041164B234043EAB7
:101308000C03C2F800310B690A7D43EA02134A7FD5
:1013180043EA0232036803F5805CDCF804410E4BB3
:1013280023401343CCF804310A7F896941EAC2712A
:10133800026802F58052D2F80801084B03400B43BB
:10134800C2F808315DF8044B704700BFFD87FFFF06
:10135800FE2FFFFF00C0FEFFEFEFC0FFFFFFC07FC3
:1013680070B5A2B0064601258DF8335000241294BA
:101378008DF841408DF843408DF828508DF856502F
:101388008DF832508DF84C408DF884504FF400534E
:101398000F938DF85C4018948DF885408DF8864041
:1013A8004FF4C36316938DF830400B948DF8355085
:1013B8008DF836408DF840401D941B9414948DF898
:1013C80064408DF87A408DF84250202320938DF8A0
:1013D80044508DF855404FF0405309934FF48043E3
:1013E8000E938DF8314002231F938DF878408DF8C5
:1013F80079408DF854408DF834501A948DF8705017
:1014080009A9FFF77DFE8DF80450029500948DF828
:101418001C408DF80D408DF80C404FF400130693D6
:101428008DF8144004938DF81D404FF4067308930B
:1014380069463046FFF73CFF22B070BD10B4002269
:1014480010E0C46802EB42034FEAC30C04EBC30389
:10145800002144F80C1059609960D960911D40F83A
:1014680021300132032AECD900238362036803F593
:1014780080530322C3F82C21C268036803F5805304
:10148800C3F81421C268036803F58053C3F8202108
:101498005DF8044B704710B4002113E0046901EBB8
:1014A80041034FEAC30C04EBC303002244F80C20A9
:1014B8005A609A60DA601A615A6101F1120240F8C2
:1014C800223001310329E9D90023C3650366836605
:1014D800C3668365036803F580530322C3F830218C
:1014E8000269036803F58053C3F81C21036903F1FB
:1014F8004802036803F58053C3F828215DF8044BBC
:101508007047000038B505460368D3F8004224F454
:10151800706400F077FE114B0344114A934205D2E0
:1015280044F400742B68C3F8004238BD0D4B0344E3
:101538000D4A934202D844F44074F3E70B4B03443A
:101548000B4A9342EED30B4B03440B4A934202D807
:1015580044F48074E6E744F48064E3E700D3CEFE05
:10156800C0E1E40040F1E9FD3F787D0100796CFCC1
:10157800005A6202001F0AFA7FF0FA02002800F0FF
:10158800998030B583B00446D0F884309BB34A4B79
:10159800D3F8F42042F00202C3F8F420D3F8F43070
:1015A80003F002030193019B237A53BB002003F04D
:1015B800CDFD424B5B68236803F580531A6842F0FF
:1015C80001021A6003F0A2FD0546236803F5805363
:1015D8001B6813F0010F19D003F098FD401BB0F5FC
:1015E800FA7FF2D90423C4F88830E023C4F88430A1
:1015F800012003B030BD2323C0F88430FFF758FB27
:10160800C5E74FF4000003F0A1FDD2E72046FFF73D
:1016180079FF00F0F7FD2A4BA3FB00239B0C2268FF
:10162800013BC2F8DC302046FFF79AFE226802F53B
:101638008052D2F8003123F4E01343F40023C2F8B7
:101648000031626912F0030F06D00120C4F8880047
:10165800E023C4F88430CCE7216801F58051D1F843
:101668000801184B034043EA4203C1F808312046F9
:10167800FFF7E4FE2046FFF70EFF62685179137901
:10168800226843EA0123C2F800336268D17893786C
:101698001B0443EA0163517843EA01231178226865
:1016A8000B43C2F804330020C4F888001023C4F8A0
:1016B80084309EE701207047004402580004005817
:1016C80083DE1B430180FFFF002800F0398338B513
:1016D8000446036813F0010F25D0944A136903F0F8
:1016E8003803926A102B15D0182B0FD06368B3F506
:1016F800803F3FD0002B53D18C4B1A6822F48032A4
:101708001A601A6822F480221A6038E002F0030294
:10171800022AEBD1854B1B6813F4003F03D06368A2
:10172800002B00F00F83236813F0020F00F0A18054
:101738007E4A1369926A13F038035AD0182B55D091
:10174800E368002B00F0DE8078490A6822F019026D
:1017580013430B6003F0DAFC0546744B1B6813F067
:10176800040F40F0AD8003F0D1FC401B0228F4D9EF
:101778000320EEE26D4A136843F480331360636814
:101788002BB303F0C3FC0546684B1B6813F4003FFA
:10179800C9D103F0BBFC401B6428F5D90320D8E26B
:1017A800B3F5A02F09D0614B1A6822F480321A6071
:1017B8001A6822F480221A60E1E75C4B1A6842F446
:1017C80080221A601A6842F480321A60D7E703F060
:1017D8009DFC0546554B1B6813F4003FA3D003F04E
:1017E80095FC401B6428F5D90320B2E212F0030FE0
:1017F800A6D14E4B1B6813F0040F03D0E368002BEF
:1018080000F0A282494A136823F01903E1680B43E8
:10181800136003F07BFC0546444B1B6813F0040F70
:1018280006D103F073FC401B0228F5D9032090E28F
:1018380003F086FC41F20303984212D82269402A39
:1018480007D03A494B6823F47C3343EA02334B60B0
:101858000FE0364A536823F47C3343F40033536073
:1018680007E0324A536823F0FE43216943EA0163E3
:101878005360236813F0100F00F088802B4A136917
:1018880003F03803926A082B56D0182B50D0E3691E
:10189800002B00F0B880254A136843F080031360DA
:1018A80003F034FC0546214B1B6813F4807F40F09D
:1018B800888003F02BFC401B0228F4D9032048E25F
:1018C80003F03EFC41F20303984212D82269402AF1
:1018D80007D016494B6823F47C3343EA02334B6044
:1018E800C7E7124A536823F47C3343F40033536048
:1018F800BFE70E4A536823F0FE43216943EA0163B8
:101908005360B6E7094A136823F00103136003F034
:10191800FDFB0546054B1B6813F0040FA9D003F027
:10192800F5FB401B0228F5D9032012E200440258B7
:1019380002F00302012AAAD1A14B1B6813F4807F8D
:1019480003D0E369802B40F0018203F0F9FB41F2F8
:101958000303984212D8226A202A07D098494B6874
:1019680023F0F84343EA82634B600FE0944A5368DC
:1019780023F0F84343F08043536007E0904AD3686C
:1019880023F07C53216A43EA0163D360236813F090
:10199800080F60D06369002B49D0894A536F43F020
:1019A8000103536703F0B2FB0546854B5B6F13F0E9
:1019B800020F50D103F0AAFB401B0228F5D90320DF
:1019C800C7E103F0BDFB41F20303984212D8226A33
:1019D800202A07D07A494B6823F0F84343EA826308
:1019E8004B60D3E7764A536823F0F84343F08043CB
:1019F8005360CBE7724AD36823F07C53216A43EAE9
:101A08000163D360C2E76E4A136823F08003136052
:101A180003F07CFB05466A4B1B6813F4807FB5D046
:101A280003F074FB401B0228F5D9032091E1644AB6
:101A3800536F23F00103536703F068FB0546604BBF
:101A48005B6F13F0020F06D003F060FB401B022807
:101A5800F5D903207DE1236813F0200F29D0A3696D
:101A68009BB1574A136843F48053136003F04EFB4D
:101A78000546534B1B6813F4005F1AD103F046FB6D
:101A8800401B0228F5D9032063E14D4A136823F46B
:101A98008053136003F03AFB0546494B1B6813F467
:101AA800005F06D003F032FB401B0228F5D9032063
:101AB8004FE1236813F0040F21D1636A002B00F073
:101AC80047813F4A126902F03802182A00F0EE8076
:101AD800022B79D03A4A136823F08073136003F01D
:101AE80015FB0446364B1B6813F0007F00F0DC80C2
:101AF80003F00CFB001B0228F4D9032029E1314A2A
:101B0800136843F48073136003F000FB05462D4B04
:101B18001B6813F4807F06D103F0F8FA401B642891
:101B2800F5D9032015E1A368012B0AD00BBB244B80
:101B38001A6F22F001021A671A6F22F004021A675C
:101B480004E01F4A136F43F001031367A36833B31C
:101B580003F0DCFA05461A4B1B6F13F0020FACD1E9
:101B680003F0D4FA401B41F288339842F3D903209A
:101B7800EFE0052B09D0124B1A6F22F001021A6709
:101B88001A6F22F004021A67E0E70D4B1A6F42F051
:101B980004021A671A6F42F001021A67D6E703F0C7
:101BA800B5FA0546064B1B6F13F0020F85D003F0FC
:101BB800ADFA401B41F288339842F3D90320C8E0BC
:101BC8000044025800480258694A136823F0807399
:101BD800136003F09BFA0546654B1B6813F0007F02
:101BE80006D003F093FA401B0228F5D90320B0E091
:101BF8005F4B996A5F4A0A40A16AE06A41EA0011AC
:101C08000A439A62226B013AC2F30802616B0139F6
:101C1800490289B20A43A16B0139090401F4FE01A2
:101C28000A43E16B0139090601F0FE410A431A63D0
:101C3800DA6A22F00102DA62596B4F4A0A40A16C53
:101C480042EAC1025A63DA6A22F00C02216C0A43A2
:101C5800DA62DA6A22F00202616C0A43DA62DA6A4C
:101C680042F48032DA62DA6A42F40032DA62DA6A1C
:101C780042F48022DA62DA6A42F00102DA621A6811
:101C880042F080721A6003F041FA0446384B1B6830
:101C980013F0007F06D103F039FA001B0228F5D9AA
:101CA800032056E0002054E0002052E0304A916AB8
:101CB800106B012B4ED001F00303A26A93424BD163
:101CC800C1F30511E36A994248D1C0F30802236BB6
:101CD800013B9A4244D1C0F34622636B013B9A42CE
:101CE80040D1C0F30642A36B013B9A423CD1C0F3FA
:101CF8000660E36B013B984238D11D4B5B6BC3F325
:101D0800CC03A26C9A4201D1002022E0184AD36A7F
:101D180023F00103D36203F0F9F9054603F0F6F95D
:101D2800A842FBD0124A516B134B0B40A16C43EAFB
:101D3800C1035363D36A43F00103D362002008E070
:101D480001207047012004E0012002E0012000E0AA
:101D5800002038BD0120FCE70120FAE70120F8E760
:101D68000120F6E70120F4E70120F2E70120F0E77F
:101D7800004402580CFCFFFF0700FFFF744B1B696F
:101D880003F03803102B00F0DE80182B10D00BB1B5
:101D9800704870476E4B1B6813F0200F00F0D58019
:101DA8006B4B1868C0F3C1006B4B23FA00F0704707
:101DB80010B4674A916A01F00301946AC4F30510EC
:101DC800D36A03F0010C536BC3F3CC030CFB03F38E
:101DD80007EE903AF8EE677A14F47C7F00F093806F
:101DE800012965D0022900F09180E1B107EE100ABF
:101DF800F8EE476A9FED596A86EE267A544B1B6BBC
:101E0800C3F3080306EE903AF8EE666A9FED546A4B
:101E180067EE867A76EEA77AF7EE006A77EEA67A0C
:101E280027EE277A60E0136813F0200F23D01146BD
:101E38001268C2F3C102484BD34007EE103AF8EEDD
:101E4800476A07EE100AB8EE476A86EE867A0B6B89
:101E5800C3F3080306EE903AF8EE666A9FED406A0F
:101E680067EE867A76EEA77AF7EE006A77EEA67ABC
:101E780027EE277A38E007EE100AF8EE476A9FED5A
:101E8800396A86EE267A324B1B6BC3F3080306EEDB
:101E9800903AF8EE666A9FED326A67EE867A76EED9
:101EA800A77AF7EE006A77EEA67A27EE277A1BE084
:101EB80007EE100AF8EE476A9FED286A86EE267A42
:101EC800234B1B6BC3F3080306EE903AF8EE666AE1
:101ED8009FED236A67EE867A76EEA77AF7EE006AB8
:101EE80077EEA67A27EE277A194B1B6BC3F34623A6
:101EF800013307EE903AF8EE677AC7EE276AFCEEF0
:101F0800E67A17EE900A5DF8044B704707EE100A60
:101F1800F8EE476A9FED146A86EE267A0C4B1B6B27
:101F2800C3F3080306EE903AF8EE666A9FED0C6A72
:101F380067EE867A76EEA77AF7EE006A77EEA67AEB
:101F480027EE277AD0E7094870470348704700BF53
:101F58000044025800093D000090D0030024744A50
:101F6800000000390024744C0024F44A00127A005E
:101F7800002800F0328170B50D4604469B4B1B6863
:101F880003F00F038B420BD2984A136823F00F0318
:101F98000B431360136803F00F038B4240F01F815B
:101FA800236813F0040F0CD02269914B9B6903F04E
:101FB80070039A4205D98E498B6923F070031A433E
:101FC8008A61236813F0080F0CD06269884BDB69BB
:101FD80003F070039A4205D98549CB6923F0700351
:101FE8001A43CA61236813F0100F0CD0A269804B02
:101FF800DB6903F4E0639A4205D97D49CB6923F490
:10200800E0631A43CA61236813F0200F0CD0E26919
:10201800774B1B6A03F070039A4205D974490B6A1F
:1020280023F070031A430A62236813F0020F0CD0DE
:10203800E2686F4B9B6903F00F039A4205D96C491C
:102048008B6923F00F031A438A61236813F0010F89
:1020580041D0674A936923F47063A1680B43936185
:102068006368022B0AD0032B27D0012B2CD0604A9F
:10207800126812F0040F06D10120ADE0126812F4C4
:10208800003F00F0AE805A490A6922F00702134364
:102098000B6103F03BF80646554B1B6903F0380308
:1020A8006268B3EBC20F16D003F030F8801B41F220
:1020B80088339842F0D903208EE04D4A126812F016
:1020C800007FE0D1012087E0494A126812F4807F3E
:1020D800D9D1012080E0236813F0020F0CD0E26808
:1020E800434B9B6903F00F039A4205D240498B6921
:1020F80023F00F031A438A613C4B1B6803F00F035C
:10210800AB420AD9394A136823F00F032B431360F3
:10211800136803F00F03AB4265D1236813F0040F73
:102128000CD02269324B9B6903F070039A4205D2A6
:102138002F498B6923F070031A438A61236813F0CF
:10214800080F0CD062692A4BDB6903F070039A42CE
:1021580005D22749CB6923F070031A43CA61236863
:1021680013F0100F0CD0A269214BDB6903F4E06374
:102178009A4205D21E49CB6923F4E0631A43CA6127
:10218800236813F0200F0CD0E269194B1B6A03F087
:1021980070039A4205D216490B6A23F070031A435A
:1021A8000A62FFF7EBFD12498B69C3F30323114A57
:1021B800D35C03F01F03D8408B6903F00F03D35C93
:1021C80003F01F0320FA03F30B4A13600B4B18604C
:1021D8000B4B186802F038FF70BD012070470120D2
:1021E800FAE70120F8E70120F6E700BF00200052D7
:1021F80000440258347D00082800002024000020F4
:102208002000002008B5FFF7B9FD0B4A9369C3F316
:1022180003230A49CB5C03F01F0320FA03F39269F6
:1022280002F00F02885C00F01F0023FA00F0044A55
:102238001060044A136008BD00440258347D000849
:10224800280000202400002008B5FFF7DBFF054B1D
:10225800DB69C3F30213044AD35C03F01F03D840BD
:1022680008BD00BF00440258347D000808B5FFF7D8
:10227800C9FF054BDB69C3F30223044AD35C03F0AF
:102288001F03D84008BD00BF00440258347D000831
:10229800404B9B6A03F00303032B79D070B50546C6
:1022A8000E463C4A136823F08063136002F02EFF49
:1022B8000446384B1B6813F0006F06D002F026FF67
:1022C800031B022BF5D9032070BD324B9A6A22F406
:1022D8007C32296842EA01329A626A68013AC2F39A
:1022E8000802A9680139490289B20A43E968013933
:1022F800090401F4FE010A4329690139090601F0BC
:10230800FE410A439A63DA6A22F0C00269690A4305
:10231800DA62DA6A22F02002A9690A43DA62DA6A22
:1023280022F01002DA62D96B1B4A0A40E96942EAD4
:10233800C102DA63DA6A42F01002DA62C6B91A46F2
:10234800DB6A43F40023D362124A136843F08063C4
:10235800136002F0DBFE04460E4B1B6813F0006F9F
:1023680014D102F0D3FE001B0228F5D90320ABE7F5
:10237800012E05D0074AD36A43F40013D362E3E77A
:10238800044AD36A43F48013D362DDE700209BE755
:1023980001207047004402580700FFFF404B9B6A2A
:1023A80003F00303032B79D070B505460E463C4A6B
:1023B800136823F08053136002F0A8FE0446384BDC
:1023C8001B6813F0005F06D002F0A0FE031B022B6F
:1023D800F5D9032070BD324B9A6A22F07C722968C5
:1023E80042EA01529A626A68013AC2F30802A9688D
:1023F8000139490289B20A43E9680139090401F43B
:10240800FE010A4329690139090601F0FE410A4320
:102418001A64DA6A22F4406269690A43DA62DA6A9B
:1024280022F40072A9690A43DA62DA6A22F4807235
:10243800DA62596C1B4A0A40E96942EAC1025A64E5
:10244800DA6A42F48072DA62C6B91A46DB6A43F481
:102458008003D362124A136843F08053136002F07A
:1024680055FE04460E4B1B6813F0005F14D102F0B2
:102478004DFE001B0228F5D90320ABE7012E05D03D
:10248800074AD36A43F08073D362E3E7044AD36A06
:1024980043F40003D362DDE700209BE70120704787
:1024A800004402580700FFFFF8B50446036813F01C
:1024B800006F30D0836EB3F5001F26D00ED8EBB175
:1024C800B3F5801F07D102210830FFF7E1FE05466A
:1024D80045B12E4621E0012635461EE0B3F5401FE2
:1024E80009D10025984A136D23F44013A16E0B43BC
:1024F8001365002611E0012635460EE0924AD36A9C
:1025080043F40033D3620025ECE702212830FFF7BB
:1025180045FF0546DCE700263546236813F4807F2F
:1025280014D0A36D042B32D8DFE803F003232A0864
:102538000800854AD36A43F40033D36255BB824A04
:10254800136D23F00703A16D0B431365236813F480
:10255800007F31D0E36D802B4CD020D8002B43D0A6
:10256800402B19D1002104F10800FFF791FE054620
:102578001AE0002104F10800FFF78AFE0546DDE7AE
:10258800002104F12800FFF709FF0546D6E70126D8
:102598003546DBE72E46D9E7012635460CE0C02B49
:1025A80002D0B3F5807F1CD15DBB674A136D23F45D
:1025B800E073E16D0B431365236813F4806F46D015
:1025C800D4F8A830B3F5800F39D01FD88BB3B3F542
:1025D800001F18D1002104F10800FFF759FE054635
:1025E8001AE001263546E7E7574AD36A43F4003331
:1025F800D362D9E7002104F12800FFF7CFFE054692
:10260800D2E72E46D8E70126354620E0B3F5C00FBD
:1026180002D0B3F5000F09D1C5B94B4A936D23F425
:102628006003D4F8A8100B43936510E001263546E3
:102638000DE0454AD36A43F40033D362ECE7002146
:1026480004F12800FFF7AAFE0546E5E72E462368B1
:1026580013F4006F24D0D4F8AC30B3F1007F42D02B
:102668000ED8002B39D0B3F1807F06D1002104F1B8
:102678000800FFF70DFE054608E0012635460FE085
:10268800B3F1407F02D0B3F1806F23D1002D31D157
:102698002D4A936D23F0E063D4F8AC100B43936597
:1026A800236813F0007F2ED0E36C202B40D026D86F
:1026B80033B1102B20D1244AD36A43F40033D362B8
:1026C800002D3CD1204AD36C23F03003E16C0B433E
:1026D800D36418E001263546E2E71B4AD36A43F47F
:1026E8000033D362D2E7002104F12800FFF756FE39
:1026F8000546CBE72E46D3E70126354603E0302BC7
:10270800DED001263546236813F4805F2DD0236E72
:10271800B3F5005F4FD019D8002B46D0B3F5805FD2
:102728000FD1002104F10800FFF7B2FD054613E0C0
:10273800022104F10800FFF7ABFD0546C0E72E466D
:10274800E1E70126354610E000440258B3F5405F42
:1027580002D0B3F5804F25D1002D33D1774A136DC0
:1027680023F4E043216E0B431365236813F4005FE1
:1027780038D0636EB3F5003F53D028D843B1B3F5D2
:10278800803F21D1012104F10800FFF781FD0546B2
:10279800002D4DD1694A136D23F4E023616E0B437C
:1027A80013651FE001263546DFE7644AD36A43F420
:1027B8000033D362D0E7002104F12800FFF7EEFDD3
:1027C8000546C9E72E46D0E7012635460AE0B3F5A7
:1027D800802FDDD0B3F5A02FDAD0B3F5403FD7D0A6
:1027E80001263546236813F4804F31D0D4F8B03031
:1027F800B3F1005F45D020D843B1B3F1805F19D160
:10280800012104F10800FFF743FD0546002D3FD1E3
:102818004A4A936D23F0E043D4F8B0100B43936514
:1028280016E0012104F12800FFF7B8FD0546AFE7DF
:102838002E46D7E7012635460AE0B3F1804FE5D0AA
:10284800B3F1A04FE2D0B3F1405FDFD001263546A7
:10285800236813F4004F09D0236FB3F1805F19D0B8
:10286800B3F1005F24D0D3B101263546236813F0B5
:10287800807F33D0A36C032B5BD8DFE803F02722DB
:102888005327012104F12800FFF788FD0546BDE71D
:102898002E46DDE7294AD36A43F40033D36275B97B
:1028A800264A136D23F04053216F0B431365DDE770
:1028B800012104F10800FFF7EBFC0546EFE72E467F
:1028C800D4E71E4AD36A43F40033D362A5BB1B4A3C
:1028D800D36C23F00303A16C0B43D364236813F474
:1028E800800F2DD1236813F0010F00F0A580E36F4E
:1028F800282B00F29F80DFE803F08D9D9D9D9D9D14
:102908009D9D879D9D9D9D9D9D9D969D9D9D9D9D0C
:102918009D9D8D9D9D9D9D9D9D9D8D9D9D9D9D9DFF
:102928009D9D8D00022104F10800FFF7B1FC0546CA
:10293800CCE701263546D1E72E46CFE700440258BA
:10294800914A136843F48073136002F0DFFB074673
:102958008D4B1B6813F4807F05D102F0D7FBC01B99
:102968006428F5D90325002D4AD1884B1B6FD4F86C
:10297800B420534013F4407F0CD0844B1A6F22F4D8
:102988004072196F41F480311967196F21F4803151
:1029980019671A67D4F8B430B3F5807F15D08DBBAA
:1029A800D4F8B43003F44072B2F5407F1ED0774AB1
:1029B800136923F47C53136174490B6FD4F8B42062
:1029C800C2F30B0213430B678CE702F09FFB074629
:1029D8006E4B1B6F13F0020FE1D102F097FBC01B87
:1029E80041F288339842F3D90325D8E7674802694A
:1029F80022F47C52664901EA131313430361DBE7AF
:102A08002E466FE72E466DE7012104F10800FFF717
:102A18003FFC0546E5B95D4A536D23F03803E16F85
:102A28000B43536508E0012104F12800FFF7B6FCC9
:102A38000546EFE701263546236813F0020F17D045
:102A4800A36F052B28D8DFE803F00B05200B0B0B31
:102A58002E46F1E7012104F10800FFF719FC0546AD
:102A6800EDB94A4A536D23F00703A16F0B43536531
:102A7800236813F0040F23D0D4F89430052B45D8DD
:102A8800DFE803F0150F3D151515012104F12800A5
:102A9800FFF784FC0546E3E701263546E8E72E46BE
:102AA800E6E7012104F10800FFF7F2FB054685BBC4
:102AB800364A936D23F00703D4F894100B439365BB
:102AC800236813F0200F34D0D4F89030B3F1005FAE
:102AD8004ED023D843B1B3F1805F1CD1002104F15B
:102AE8000800FFF7D5FB0546002D48D1274A536D4E
:102AF80023F0E043D4F890100B43536519E001210B
:102B080004F12800FFF74AFC0546D0E701263546C0
:102B1800D6E72E46D4E7012635460AE0B3F1804FC2
:102B2800E2D0B3F1A04FDFD0B3F1405FDCD0012693
:102B38003546236813F0400F37D0D4F89C30B3F5EE
:102B4800006F53D026D843B1B3F5806F19D1002157
:102B580004F10800FFF79CFB0546002D4DD10B4AF8
:102B6800936D23F4E053D4F89C100B4393651CE059
:102B7800022104F12800FFF711FC0546B4E72E46B0
:102B8800D7E70126354610E00048025800440258AD
:102B9800CFFFFF00B3F5805FDFD0B3F5A05FDCD0D7
:102BA800B3F5406FD9D001263546236813F0800F5E
:102BB80033D0D4F8A030B3F5804F00F0A38021D8EB
:102BC80043B1B3F5005F1AD1002104F10800FFF703
:102BD8005FFB0546002D40F09C80814A936D23F4ED
:102BE8006043D4F8A0100B43936516E0022104F16A
:102BF8002800FFF7D3FB0546AFE72E46D5E70126A9
:102C080035460AE0B3F5004FE4D0B3F5204FE1D0E4
:102C1800B3F5C04FDED001263546236813F0080F00
:102C28000CD0D4F88430B3F5805F74D06C4A536DFF
:102C380023F44053D4F884100B435365236813F0EE
:102C4800100F0CD0D4F89830B3F5807F6CD0644A5C
:102C5800936D23F44073D4F898100B43936523685D
:102C680013F4002F0BD0D4F8A430B3F5803F74D000
:102C7800B3F5003F67D0002B5FD0012635462368A7
:102C880013F4802F0CD0D4F88830B3F5001F7CD013
:102C9800B3F5401F6FD0B3F5801F67D001263546C6
:102CA800236813F4803F08D0236D002B76D0B3F54A
:102CB800803F00F0818001263546236813F0005FCD
:102CC80040F08380236813F4003F00F08E80D4F82E
:102CD8008030B3F5807F00F0EC8040F28380B3F55C
:102CE800007F03D0B3F5407F40F0E180002D40F035
:102CF800E6803B4A536D23F44073D4F880100B43AD
:102D0800536572E0022104F12800FFF747FB0546EE
:102D180060E72E4681E7022104F12800FFF73EFB19
:102D2800002883D0012681E7022104F12800FFF75B
:102D380035FB00288BD0012689E7002104F1080023
:102D4800FFF7A6FA05467DB9254A936D23F440336B
:102D5800D4F8A4100B43936591E7022104F12800ED
:102D6800FFF71CFB0546EEE72E4688E71C4AD36AA8
:102D780043F40033D3627DB9194A536D23F44013E9
:102D8800D4F888100B4353658AE7012104F1280021
:102D9800FFF704FB0546EEE72E4681E7104AD36AA3
:102DA80043F40033D36275B90D4AD36C23F48033EE
:102DB800216D0B43D36480E7022104F10800FFF77B
:102DC80067FA0546EFE72E4677E7022104F1280067
:102DD800FFF7E4FA00283FF475AF012672E700BF59
:102DE80000440258002B81D00126236813F4801F69
:102DF80006D04F4A136D23F00043616F0B431365F0
:102E0800236813F0805F07D0494A136923F480438D
:102E1800D4F8B8100B431361236813F4001F06D0CD
:102E2800434A136D23F08073E16E0B4313652368E7
:102E380013F0804F09D03E4B1A6922F400421A6100
:102E48001A69D4F8BC100A431A612368002B06DA01
:102E5800374AD36C23F04053616D0B43D364236826
:102E680013F4000F07D0324A536D23F44003D4F80B
:102E78008C100B435365636813F0010F21D163680D
:102E880013F0020F26D1636813F0040F2BD1636887
:102E980013F0080F30D1636813F0100F35D1636851
:102EA80013F0200F3AD106B101263046F8BD0126AD
:102EB8009BE71F4AD36A43F40033D36216E72E46D2
:102EC80093E7002104F10800FFF7E2F90028D6D0C3
:102ED8000646D4E7012104F10800FFF7D9F90028D4
:102EE800D1D00646CFE7022104F10800FFF7D0F958
:102EF8000028CCD00646CAE7002104F12800FFF7D5
:102F08004DFA0028C7D00646C5E7012104F128007C
:102F1800FFF744FA0028C2D00646C0E7022104F1B0
:102F28002800FFF73BFA0028BDD00646BBE700BFE4
:102F38000044025808B5FFF765F9054B1B6AC3F34F
:102F48000213044AD35C03F01F03D84008BD00BF36
:102F580000440258347D000810B5774A916A946A93
:102F6800C4F3053ED36AC3F3001CD36BC3F3CC038D
:102F78000CFB03F314F47C3F00F0D88001F003014C
:102F880007EE903AF8EE677A012965D0022900F039
:102F9800B080E1B107EE10EAB8EE477A9FED676AB4
:102FA800C6EE076A644B9B6BC3F3080307EE103A3F
:102FB800B8EE477A9FED626A67EE867A77EE277AEF
:102FC800B7EE007A77EE877A66EEA76A60E0136854
:102FD80013F0200F23D011461268C2F3C102594BD7
:102FE800D34007EE103AB8EE477A06EE90EAB8EE0C
:102FF800666AC7EE066A8B6BC3F3080307EE103ADE
:10300800B8EE477A9FED4E6A67EE867A77EE277AB2
:10301800B7EE007A77EE877A66EEA76A38E007EEB1
:1030280010EAB8EE477A9FED486AC6EE076A424B47
:103038009B6BC3F3080307EE103AB8EE477A9FED8F
:10304800406A67EE867A77EE277AB7EE007A77EEEF
:10305800877A66EEA76A1BE007EE10EAB8EE477AB1
:103068009FED366AC6EE076A334B9B6BC3F30803C2
:1030780007EE103AB8EE477A9FED316A67EE867A26
:1030880077EE277AB7EE007A77EE877A66EEA76A48
:10309800294A936BC3F3462307EE103AB8EE477AF2
:1030A800B7EE006A37EE067AC6EE877AFCEEE77A64
:1030B800C0ED007A936BC3F3064307EE103AB8EEFF
:1030C800477A37EE067AC6EE877AFCEEE77AC0EDE5
:1030D800017A936BC3F3066307EE903AF8EE677ACA
:1030E80077EE867A86EEA77ABCEEC77A80ED027A0A
:1030F80010BD07EE10EAB8EE477A9FED146AC6EEE7
:10310800076A0D4B9B6BC3F3080307EE103AB8EE42
:10311800477A9FED0B6A67EE867A77EE277AB7EEE5
:10312800007A77EE877A66EEA76AB1E70023036034
:1031380043608360DCE700BF004402580024744AFF
:10314800000000390090D0030024744C0024F44A95
:1031580010B5774A916A946AC4F3055ED36AC3F3DB
:10316800002C536CC3F3CC030CFB03F314F07C7FEB
:1031780000F0D88001F0030107EE903AF8EE677A84
:10318800012965D0022900F0B080E1B107EE10EA0C
:10319800B8EE477A9FED676AC6EE076A644B1B6C08
:1031A800C3F3080307EE103AB8EE477A9FED626A58
:1031B80067EE867A77EE277AB7EE007A77EE877A27
:1031C80066EEA76A60E0136813F0200F23D011465B
:1031D8001268C2F3C102594BD34007EE103AB8EE59
:1031E800477A06EE90EAB8EE666AC7EE066A0B6C96
:1031F800C3F3080307EE103AB8EE477A9FED4E6A1C
:1032080067EE867A77EE277AB7EE007A77EE877AD6
:1032180066EEA76A38E007EE10EAB8EE477A9FED47
:10322800486AC6EE076A424B1B6CC3F3080307EEF5
:10323800103AB8EE477A9FED406A67EE867A77EEE5
:10324800277AB7EE007A77EE877A66EEA76A1BE0F0
:1032580007EE10EAB8EE477A9FED366AC6EE076ABF
:10326800334B1B6CC3F3080307EE103AB8EE477AEA
:103278009FED316A67EE867A77EE277AB7EE007AA5
:1032880077EE877A66EEA76A294A136CC3F346235A
:1032980007EE103AB8EE477AB7EE006A37EE067ACC
:1032A800C6EE877AFCEEE77AC0ED007A136CC3F3BA
:1032B800064307EE103AB8EE477A37EE067AC6EEBE
:1032C800877AFCEEE77AC0ED017A136CC3F30663E4
:1032D80007EE903AF8EE677A77EE867A86EEA77A66
:1032E800BCEEC77A80ED027A10BD07EE10EAB8EEA0
:1032F800477A9FED146AC6EE076A0D4B1B6CC3F341
:10330800080307EE103AB8EE477A9FED0B6A67EEAE
:10331800867A77EE277AB7EE007A77EE877A66EEC6
:10332800A76AB1E70023036043608360DCE700BF5E
:10333800004402580024744A000000390090D00369
:103348000024744C0024F44AF0B583B000236BE0E9
:1033580085685E000324B44025EA0405CC68B440BF
:103368002C438460446824EA0C0C4C68C4F30014B1
:103378009C4044EA0C04446068E0DD08083550F8D5
:10338800256003F007044FEA840C0F2404FA0CF4B8
:1033980026EA040E0C6904FA0CF444EA0E0440F818
:1033A80025406BE0092400E0002404FA0EF42C43C5
:1033B8000CF1020C694D45F82C404FF0B0442568DB
:1033C800D44325EA02064F6817F4801F01D042EA69
:1033D80005064FF0B0452E606D6804EA05064F6893
:1033E80017F4001F01D042EA05064FF0B0456E60A1
:1033F800D5F8845004EA05064F6817F4003F01D059
:1034080042EA05064FF0B045C5F88460D5F880500B
:103418002C404E6816F4803F01D042EA05044FF074
:10342800B042C2F8804001330A6832FA03F400F06F
:1034380092804FF0010C0CFA03FC1CEA0202F2D055
:103448004C6804F00304013C012C81D94C6804F059
:103458000304032C0CD0C4685D004FF0030C0CFA75
:1034680005FC24EA0C0C8C68AC4044EA0C04C460EB
:103478004C6804F00304022C3FF47FAF04684FEA61
:10348800430E4FF0030C0CFA0EFC24EA0C0C4C68AB
:1034980004F0030404FA0EF444EA0C0404604C68D3
:1034A80014F4403FBFD02E4CD4F8F45045F0020538
:1034B800C4F8F450D4F8F44004F002040194019CD8
:1034C8004FEA930C0CF10205244C54F8255003F0F4
:1034D80003044FEA840E0F2404FA0EF425EA0405C7
:1034E800204CA0423FF460AF04F58064A04222D093
:1034F80004F58064A04220D004F58064A0421ED068
:1035080004F58064A0421CD004F58064A0421AD05F
:1035180004F58064A04218D004F58064A04216D057
:1035280004F58064A04214D004F58064A0423FF4FE
:1035380039AF0A2439E7012437E7022435E70324A1
:1035480033E7042431E705242FE706242DE7072471
:103558002BE7082429E703B0F0BD00BF000400589A
:1035680000440258000002580AB1816170470904FA
:1035780081617047F0B4876D0468664E664DAC4251
:1035880018BFB44242D01835AC423FD01835AC42CF
:103598003CD01835AC4239D01835AC4236D0183545
:1035A800AC4233D01835AC4230D005F55675AC4234
:1035B8002CD01835AC4229D01835AC4226D0183555
:1035C800AC4223D01835AC4220D01835AC421DD0BF
:1035D8001835AC421AD01835AC4217D04F4DAC4212
:1035E80014D01435AC4211D01435AC420ED0143579
:1035F800AC420BD01435AC4208D01435AC4205D0DF
:103608001435AC4202D01435AC4207D1446E856EF5
:103618006560C46E14B1046F456F656004683D4E03
:103628003D4DAC4218BFB44252D01835AC424FD0D1
:103638001835AC424CD01835AC4249D01835AC429C
:1036480046D01835AC4243D01835AC4240D005F5C9
:103658005675AC423CD01835AC4239D01835AC421E
:1036680036D01835AC4233D01835AC4230D0183586
:10367800AC422DD01835AC422AD01835AC4227D0F0
:10368800264E274DAC4218BFB44211D0254DAC424E
:103698000ED01435AC420BD01435AC4208D01435DA
:1036A800AC4205D01435AC4202D01435AC4224D11A
:1036B800C46D04F01F050124AC407C60046863609D
:1036C8008368402B20D0036899600368DA6014E0AF
:1036D800C46D04F01F0C3F2404FA0CF4BC600568A8
:1036E8002C6824F480242C60046863608368402B71
:1036F80005D0036899600368DA60F0BC7047036816
:103708009A600368D960F8E703689A600368D9602B
:10371800F3E700BF10000240280002400854025896
:103728001C5402583054025803682749274A9342C8
:1037380018BF8B422FD0183293422CD018329342A4
:1037480029D01832934226D01832934223D0183207
:10375800934220D0183293421DD002F556729342FC
:1037680019D01832934216D01832934213D0183217
:10377800934210D0183293420DD0183293420AD097
:103788001832934207D01832934204D023F0FF0333
:103798008365806D704710B4D9B210390C4AA2FB0A
:1037A8000142C2F302120B4CA25CC2655F2907D921
:1037B800094A1A4004328265806D5DF8044B7047EF
:1037C800054A1A408265F7E71000024028000240C7
:1037D800ABAAAAAA047D000800FCFFFF83699BB975
:1037E800836A012B0AD0022B02D00BB1002070474C
:1037F800C36A13F0807F2AD100207047C36AB3F1EF
:10380800C07F26D000207047B3F5005F0AD0836AD6
:10381800022B26D9032B26D1C36A13F0807F24D12B
:1038280000207047836A032B03D8DFE803F01404F1
:10383800140A00207047C36A13F0807F0DD100205E
:103848007047C36AB3F1C07F09D0002070470120D8
:103858007047012070470120704701207047012000
:103868007047012070470020704701207047000012
:1038780003682249224A934218BF8B4228D0143247
:10388800934225D01432934222D0143293421FD04F
:10389800143293421CD01432934219D014329342FA
:1038A80016D0DAB2103A1749A1FB021212091649CA
:1038B8001944A8291FD9154B13449B000366144BC0
:1038C800436602F01F02012303FA02F28266704780
:1038D800DBB2083B0F4AA2FB03230F4A02EB131289
:1038E800920002660D4A4266C3F30413012202FAEB
:1038F80003F3836670470832DDE700BF08540258B7
:103908001C540258ABAAAAAAF0FBFDBF0082001003
:1039180080080240CDCCCCCC0096001680580258C6
:1039280001794A1E072A2CD830B40368154D164C65
:10393800A34218BFAB4218D01434A34215D0143494
:10394800A34212D01434A3420FD01434A3420CD093
:103958001434A34209D01434A34206D00B4B0B44B1
:103968009B00C3660A4B036705E00A4B0B449B00A8
:10397800C366094B0367012303FA02F2426730BCAE
:1039880070477047085402581C5402583F82001070
:10399800400902403F9600164059025870B5044647
:1039A80001F0B4FB002C00F0B681054623685349AA
:1039B800534A934218BF8B420CBF0122002250D0B9
:1039C80030318B424DD018318B424AD018318B425E
:1039D80047D018318B4244D018318B4241D018312E
:1039E8008B423ED001F556718B423AD018318B424A
:1039F80037D018318B4234D018318B4231D018313E
:103A08008B422ED018318B422BD018318B4228D0C4
:103A180018318B4225D03B493B4A934218BF8B4211
:103A280000F03181394A934200F02D8114329342DB
:103A380000F029811432934200F025811432934218
:103A480000F021811432934200F01D811432934218
:103A580000F0198140236365032384F83530012081
:103A68004AE0022184F83510002184F834107ABB2A
:103A7800274A93422CD01832934229D018329342C5
:103A880026D01832934223D01832934220D01832CD
:103A980093421DD002F55672934219D018329342C0
:103AA80016D01832934213D01832934210D01832DD
:103AB80093420DD0183293420AD01832934207D05D
:103AC8001832934204D01A6822F001021A6003E007
:103AD8001A6822F001021A6023681A6812F0010FAE
:103AE80018D001F013FB431B052BF5D92023636580
:103AF800032384F83530012070BD00BF1000024058
:103B080028000240085402581C54025830540258E5
:103B1800400002401A6881481040A168E2680A43E0
:103B280021690A4361690A43A1690A43E1690A43B1
:103B3800216A0A430243616A042900F0998078499E
:103B4800086878490140B1F1005F11D36168A1F1BB
:103B58002905A1F13F00032888BF052D06D9A1F149
:103B68004700012802D94F39032901D842F48012AD
:103B78001A602668756925F00705636A1D43042BDA
:103B880008D1A36A1D43E36A23B12046FFF726FE46
:103B9800002872D175612046FFF7C6FDE36D03F07A
:103BA8001F023F239340836023685F495F4A934223
:103BB80018BF8B4242D0183293423FD018329342FA
:103BC8003CD01832934239D01832934236D018324A
:103BD800934233D01832934230D002F55672934252
:103BE8002CD01832934229D01832934226D018325A
:103BF800934223D01832934220D0183293421DD0DA
:103C0800183293421AD01832934217D0484A934236
:103C180014D01432934211D0143293420ED014327D
:103C280093420BD01432934208D01432934205D0F9
:103C38001432934202D01432934213D12046FFF734
:103C480017FEA368802B59D0236E22791A60636E01
:103C5800A26E5A606368013B072B52D90023E366C2
:103C68002367636700206065012384F8353043E7E4
:103C7800E16A206B01430A4361E740236365012041
:103C880084F8350038E7022284F83520002284F8C9
:103C980034201A6827491140A268402A2CD0802A6B
:103CA80027D00022E06842EAD002206942EAD00226
:103CB800606942EAD002A06942EAD002E06942EAB9
:103CC800D002206A42EA10120A431A6022681A4B8C
:103CD80013441A4AA2FB03231B099B00E3652046F1
:103CE800FFF722FDE26D02F01F0101228A404260C7
:103CF8005AE74FF48042D5E71022D3E700236360E8
:103D0800A2E72046FFF70CFEE36E00221A60236F3D
:103D1800626F5A60A6E70120EEE600BF3F8010FE02
:103D28000010005C0000FFFF100002402800024065
:103D3800085402580F00FEFFF8ABFDA7CDCCCCCC41
:103D4800002800F03E8170B5044690F83400012840
:103D580000F03981012084F8340094F83500C0B2AD
:103D6800012807D04FF400636365002384F83430DA
:103D7800012070BD022084F83500002060652068AD
:103D8800924E934DA84218BFB0422FD01835A84282
:103D98002CD01835A84229D01835A84226D0183575
:103DA800A84223D01835A84220D01835A8421DD0E3
:103DB80005F55675A84219D01835A84216D01835F9
:103DC800A84213D01835A84210D01835A8420DD0F3
:103DD8001835A8420AD01835A84207D01835A84285
:103DE80004D0056825F00105056003E0056825F0A5
:103DF800010505602046FFF7BDFB23687349744A37
:103E0800934218BF8B4238D01832934235D01832BB
:103E1800934232D0183293422FD0183293422CD08A
:103E28001832934229D01832934226D002F556729E
:103E3800934222D0183293421FD0183293421CD09A
:103E48001832934219D01832934216D0183293423E
:103E580013D01832934210D0183293420DD01A68FA
:103E680022F00E0242F00A021A60236C93B1226813
:103E7800136843F0040313600CE01A6822F01E0272
:103E880042F016021A60236C23B12268136843F0CB
:103E98000803136023684D494D4A934218BF8B426B
:103EA80042D0183293423FD0183293423CD0183255
:103EB800934239D01832934236D01832934233D0D5
:103EC8001832934230D002F5567293422CD01832F1
:103ED800934229D01832934226D01832934223D0E5
:103EE8001832934220D0183293421DD01832934290
:103EF8001AD01832934217D0364A934214D014324B
:103F0800934211D0143293420ED0143293420BD004
:103F18001432934208D01432934205D0143293429B
:103F280002D0143293420ED1236E1A6812F4803FE5
:103F380003D01A6842F480721A60E36E1BB11A68E3
:103F480042F480721A6023682049214A934218BFBC
:103F58008B4230D0183293422DD0183293422AD057
:103F68001832934227D01832934224D01832934201
:103F780021D0183293421ED002F5567293421AD0BD
:103F88001832934217D01832934214D01832934201
:103F980011D0183293420ED0183293420BD01832F7
:103FA800934208D01832934205D01A6842F00102B1
:103FB8001A600020DDE61A6842F001021A6000204B
:103FC800D7E6012070470220D3E600BF1000024068
:103FD800280002400854025870B5044601F096F8CB
:103FE800002C00F09181054694F83530DBB2022BA5
:103FF80006D080236365002384F83430012070BD27
:1040080023688C498C4A934218BF8B4230D01832AF
:1040180093422DD0183293422AD01832934227D097
:104028001832934224D01832934221D01832934246
:104038001ED002F5567293421AD01832934217D006
:104048001832934214D01832934211D01832934246
:104058000ED0183293420BD01832934208D018323F
:10406800934205D01A6822F00E021A60266809E009
:104078001A6822F01E021A602268536923F080032E
:104088005361266823686B496B4A934218BF8B4279
:1040980042D0183293423FD0183293423CD0183263
:1040A800934239D01832934236D01832934233D0E3
:1040B8001832934230D002F5567293422CD01832FF
:1040C800934229D01832934226D01832934223D0F3
:1040D8001832934220D0183293421DD0183293429E
:1040E8001AD01832934217D0544A934214D014323B
:1040F800934211D0143293420ED0143293420BD013
:104108001432934208D01432934205D014329342A9
:1041180002D01432934204D1226E136823F48073C0
:10412800136023684349444A934218BF8B422FD0F7
:10413800183293422CD01832934229D01832934225
:1041480026D01832934223D01832934220D0183206
:1041580093421DD002F55672934219D018329342F9
:1041680016D01832934213D01832934210D0183216
:1041780093420DD0183293420AD01832934207D096
:104188001832934204D01A6822F001021A6003E040
:104198001A6822F001021A60336813F0010F0ED07A
:1041A80000F0B4FF431B052BF6D9202363650323D6
:1041B80084F83530002384F8343001201FE7236861
:1041C8001C491D4A934218BF8B4239D0183293427A
:1041D80036D01832934233D01832934230D0183246
:1041E80093422DD0183293422AD01832934227D0C6
:1041F80002F55672934223D01832934220D01832D7
:1042080093421DD0183293421AD01832934217D0D5
:104218001832934214D01832934211D01832934274
:104228000ED0A16DE36D03F01F02012393404B6094
:104238000DE000BF10000240280002400854025858
:10424800A16DE36D03F01F023F2393408B60236849
:104258002E492F4A934218BF8B4242D018329342BC
:104268003FD0183293423CD01832934239D018329A
:10427800934236D01832934233D01832934230D01A
:1042880002F5567293422CD01832934229D0183234
:10429800934226D01832934223D01832934220D02A
:1042A800183293421DD0183293421AD018329342D2
:1042B80017D0184A934214D01432934211D01432B2
:1042C80093420ED0143293420BD01432934208D04A
:1042D8001432934205D01432934202D014329342DE
:1042E8000BD1636EA26E5A60E36E33B11A6822F482
:1042F80080721A60236F626F5A60012384F8353028
:10430800002084F834007AE6012078E610000240A4
:104318002800024008540258F0B583B00446002330
:1043280001937D4B1D687D4BA3FB0535AD0A876D59
:104338003E68D7F800C0036879497A48834218BFB5
:104348008B420CBF0120002061D0774A93425ED097
:10435800183293425BD01832934258D018329342A5
:1043680055D01832934252D0183293424FD002F5AA
:10437800567293424BD01832934248D01832934227
:1043880045D01832934242D0183293423FD0183267
:1043980093423CD01832934239D01832934236D0E7
:1043A8006249634A934218BF8B4212D0614A9342D2
:1043B8000FD0143293420CD01432934209D01432E5
:1043C800934206D01432934203D01432934240F001
:1043D80061821A68E16D01F01F010420884010EA2B
:1043E8000C0F00F0A78212F0040F00F0A38278608F
:1043F80012F4004F00F05A8212F4803F40F05082CD
:10440800A36C002B00F046822046984742E2E26DFA
:1044180002F01F0108228A40324241D070BB424A52
:1044280093422BD01832934228D01832934225D089
:104438001832934222D0183293421FD01832934236
:104448001CD002F55672934218D01832934215D0F8
:104458001832934212D0183293420FD01832934236
:104468000CD01832934209D01832934206D0183231
:10447800934203D01A68C2F3C00202E01A68C2F37A
:1044880080026AB11A6822F004021A60E36D03F030
:104498001F0208239340BB60636D43F0010363650B
:1044A800E26D02F01F0226FA02F313F0010F47D063
:1044B80023681B481B498B4218BF83423CD01831E4
:1044C8008B4239D018318B4236D018318B4233D0D9
:1044D80018318B4230D018318B422DD018318B4295
:1044E8002AD001F556718B4226D018318B4223D041
:1044F80018318B4220D018318B421DD018318B4295
:104508001AD018318B4217D018318B4214D0183179
:104518008B4211D01B6813E024000020B5814E1B8C
:10452800100002402800024040000240085402588F
:104538001C540258305402585B6913F0800F3BD169
:10454800E36D03F01F03042202FA03F3334240D061
:104558002268964896498A4218BF824235D0183157
:104568008A4232D018318A422FD018318A422CD050
:1045780018318A4229D018318A4226D018318A4205
:1045880023D001F556718A421FD018318A421CD0B7
:1045980018318A4219D018318A4216D018318A4205
:1045A80013D018318A4210D018318A420DD01831F0
:1045B8008A420AD013680CE0012303FA02F2BA60B7
:1045C800636D43F002036365BAE7126812F0020FE5
:1045D8003DD1E36D03F01F03102202FA03F33342C7
:1045E8005FD02268714872498A4218BF824234D02B
:1045F80018318A4231D018318A422ED018318A4275
:104608002BD018318A4228D018318A4225D0183147
:104618008A4222D001F556718A421ED018318A4248
:104628001BD018318A4218D018318A4215D0183157
:104638008A4212D018318A420FD018318A420CD0DF
:1046480018318A4209D01268C2F3800208E0BB60C0
:10465800636D43F004036365BBE71268C2F3C002ED
:10466800FAB1BB6023681A6812F4802F0DD01B685A
:1046780013F4002F04D1236C9BB12046984710E017
:10468800A36C73B1204698470BE01A6812F4807F38
:1046980003D11A6822F008021A60236C0BB1204675
:1046A8009847E36D03F01F03202202FA03F3334215
:1046B80000F0928022683D483D498A4218BF8242F4
:1046C8002ED018318A422BD018318A4228D018317E
:1046D8008A4225D018318A4222D018318A421FD006
:1046E80018318A421CD001F556718A4218D0183107
:1046F8008A4215D018318A4212D018318A420FD016
:1047080018318A420CD018318A4209D018318A42AD
:1047180006D018318A4203D01268C2F3400202E080
:104728001268C2F30012002A56D0BB6094F83530E4
:10473800DBB2042B0ED023681A6812F4802F39D00C
:104748001B6813F4002F2CD1636C002B44D0204637
:10475800984741E02268136823F016031360226823
:10476800536923F080035361236CB3B12268136843
:1047780023F008031360E36D03F01F023F23934007
:10478800BB60012384F83530002384F83430236D6E
:10479800002B7FD0204698477CE0A36C002BE5D106
:1047A800E9E7E36BC3B12046984715E010000240E3
:1047B800280002401A6812F4807F09D11A6822F092
:1047C80010021A60012384F83530002384F834304D
:1047D800E36B0BB120469847636D002B5AD0636D8D
:1047E80013F0010F52D0042384F83530236896491A
:1047F800964A934218BF8B422FD0183293422CD03E
:104808001832934229D01832934226D01832934254
:1048180023D01832934220D0183293421DD002F58B
:104828005672934219D01832934216D018329342D6
:1048380013D01832934210D0183293420DD0183248
:1048480093420AD01832934207D01832934204D0C8
:104858001A6822F001021A6003E01A6822F00102C5
:104868001A60019B01330193AB4204D823681B688B
:1048780013F0010FF5D123681B6813F0010F0BD05B
:10488800032384F83530002384F83430E36C0BB10B
:104898002046984703B0F0BD012384F83530F2E78D
:1048A800236C002BF6D020469847F3E712F0200F30
:1048B8003AD123686449654A934218BF8B422FD086
:1048C800183293422CD01832934229D0183293428E
:1048D80026D01832934223D01832934220D018326F
:1048E80093421DD002F55672934219D01832934262
:1048F80016D01832934213D01832934210D018327F
:1049080093420DD0183293420AD01832934207D0FE
:104918001832934204D01A6822F004021A6003E0A5
:104928001A6822F008021A60236C002BB2D02046C5
:104938009847AFE70220884010EA0C0F60D012F0C9
:10494800020F5DD0786012F4004F0ED012F4803F51
:1049580005D1636C002B9DD0204698479AE7E36BFE
:10496800002B97D02046984794E712F0200F40D1AB
:1049780023683549354A934218BF8B422FD01832E5
:1049880093422CD01832934229D01832934226D021
:104998001832934223D01832934220D018329342CF
:1049A8001DD002F55672934219D01832934216D090
:1049B8001832934213D01832934210D018329342CF
:1049C8000DD0183293420AD01832934207D01832C9
:1049D800934204D01A6822F00A021A6003E01A68A7
:1049E80022F014021A60012384F83530002384F879
:1049F8003430E36B002B3FF44DAF2046984749E72E
:104A0800082000FA01F111EA0C0F3FF443AF12F04D
:104A1800080F3FF43FAF1A6822F00E021A60E36DE8
:104A280003F01F03012202FA03F37B60626584F836
:104A38003520002384F83430E36C002B3FF42AAF90
:104A48002046984726E700BF100002402800024091
:104A580070B40468264E274DAC4218BFB44233D018
:104A68001835AC4230D01835AC422DD01835AC4290
:104A78002AD01835AC4227D01835AC4224D0183586
:104A8800AC4221D005F55675AC421DD01835AC4264
:104A98001AD01835AC4217D01835AC4214D0183596
:104AA800AC4211D01835AC420ED01835AC420BD000
:104AB8001835AC4208D063608368402B13D0036874
:104AC80099600368DA6007E063608368402B05D06B
:104AD800036899600368DA6070BC704703689A607D
:104AE8000368D960F8E703689A600368D960F3E758
:104AF800100002402800024070B5044680688028F3
:104B080011D094F83400012800F0B981012084F80C
:104B1800340094F83500C0B2012809D04FF400637E
:104B28006365012070BD4FF4807363650120F9E768
:104B3800022084F83500002060652068724E734DAD
:104B4800A84218BFB04239D01835A84236D0183517
:104B5800A84233D01835A84230D01835A8422DD0F5
:104B68001835A8422AD01835A84227D005F5567519
:104B7800A84223D01835A84220D01835A8421DD005
:104B88001835A8421AD01835A84217D01835A842A7
:104B980014D01835A84211D01835A8420ED006688E
:104BA80048F220053543056020680361A56DE36D73
:104BB80003F01F00012383406B600CE0056845F497
:104BC8008025056020680361A56DE36D03F01F0073
:104BD8003F238340AB60049B2046FFF739FF2368DF
:104BE80049494A4A934218BF8B4242D018329342ED
:104BF8003FD0183293423CD01832934239D0183201
:104C0800934236D01832934233D01832934230D080
:104C180002F5567293422CD01832934229D018329A
:104C2800934226D01832934223D01832934220D090
:104C3800183293421DD0183293421AD01832934238
:104C480017D0334A934214D01432934211D01432FD
:104C580093420ED0143293420BD01432934208D0B0
:104C68001432934205D01432934202D01432934244
:104C780007D1636EA26E5A60E36E13B1236F626F41
:104C88005A6023682049214A934218BF8B4241D079
:104C9800183293423ED0183293423BD01832934296
:104CA80038D01832934235D01832934232D0183265
:104CB80093422FD002F5567293422BD0183293426A
:104CC80028D01832934225D01832934222D0183275
:104CD80093421FD0183293421CD01832934219D0F5
:104CE8001832934216D01A6822F00E0242F00A02D5
:104CF8001A60236C002B00F0B7802268136843F019
:104D0800040313601AE000BF1000024028000240AC
:104D1800085402581A6822F01E0242F016021A605D
:104D28002268536943F080035361236C002B00F021
:104D380096802268136843F008031360236851497A
:104D4800514A934218BF8B4242D0183293423FD007
:104D5800183293423CD01832934239D018329342D9
:104D680036D01832934233D01832934230D002F5FD
:104D7800567293422CD01832934229D0183293425B
:104D880026D01832934223D01832934220D01832BA
:104D980093421DD0183293421AD01832934217D03A
:104DA8003A4A934214D01432934211D014329342A7
:104DB8000ED0143293420BD01432934208D01432DE
:104DC800934205D01432934202D0143293420ED14A
:104DD800236E1A6812F4803F03D01A6842F4807276
:104DE8001A60E36E1BB11A6842F480721A60236875
:104DF8002449254A934218BF8B423AD0183293422D
:104E080037D01832934234D01832934231D0183206
:104E180093422ED0183293422BD01832934228D086
:104E280002F55672934224D01832934221D0183298
:104E380093421ED0183293421BD01832934218D096
:104E48001832934215D01832934212D01832934236
:104E58000FD01A6842F001021A60002062E6A36CC3
:104E6800002B7FF466AF69E7A36C002B7FF445AF96
:104E780064E71A6842F001021A60002052E6022034
:104E880050E600BF100002402800024008540258B3
:104E980010B403681E4C1F48834218BFA3422DD08C
:104EA800183083422AD01830834227D018308342E2
:104EB80024D01830834221D0183083421ED01830B5
:104EC80083421BD000F55670834217D018308342B6
:104ED80014D01830834211D0183083420ED01830C5
:104EE80083420BD01830834208D01830834205D053
:104EF8001830834202D04AB1196101E022B9D96061
:104F080000205DF8044B70471961F9E7D960F7E7AD
:104F1800100002402800024070B40B7A012B28D000
:104F28000024254690F83520D2B2012A24D190F8E1
:104F38003430012B26D0012380F83430036E1A68F0
:104F480022F481321A60066E3268D2B2CB68013B15
:104F5800DB0443EA056323430C7A43EA0443497AB2
:104F680043EA412313433360002380F83430184662
:104F780006E00D684C68D5E74FF4006343650120EF
:104F880070BC70470220FBE710B50446436E1A68F0
:104F9800836E1A420ED0026E136823F48073136076
:104FA800436E826E5A60436D43F400734365C36C6D
:104FB80003B19847E36E9BB1226F1168626F11428B
:104FC8000ED01A6822F480721A60236F626F5A60DA
:104FD800636D43F480636365E36C0BB120469847C7
:104FE80010BD0000134BDB6813F0040F07D1114B01
:104FF800DB6803F0070383421AD00120704710B51D
:105008000C4AD36823F007031843D06000F07EF8F9
:105018000446084B5B6813F4005F07D100F076F88C
:10502800001BB0F57A7FF4D9012000E0002010BD04
:105038000020704700480258024AD36843F0807342
:10504800D360704700480258104B1B780BB90120F9
:10505800704710B504464FF47A70B0FBF3F30C4A6E
:105068001068B0FBF3F0FCF737F868B90F2C01D9DA
:1050780001200AE0002221464FF0FF30FBF7E8FF4D
:10508800044B1C60002000E0012010BD1C00002023
:10509800240000202000002010B50320FBF7C6FFE5
:1050A800FCF76CFE0F498B69C3F303230E4AD35CEC
:1050B80003F01F03D8408B6903F00F03D35C03F0A0
:1050C8001F0320FA03F3094A1360094B18600020F4
:1050D800FFF7BAFF10B10124204610BD0446FBF7C4
:1050E80001FDF9E700440258347D0008280000203B
:1050F80024000020034B1B78034A11680B441360FB
:10510800704700BF1C000020F0080020014B186801
:10511800704700BFF008002038B50446FFF7F6FFD7
:105128000546B4F1FF3F02D0044B1B781C44FFF73F
:10513800EDFF401BA042FAD338BD00BF1C00002081
:10514800014B1868000C70470010005C034A536854
:1051580023F4600303435360704700BF0004005802
:1051680003689A6912F0020F01D000229A6203685C
:105178009A6912F0010F03D19A6942F001029A610B
:10518800704710B4019CC1F3090141EA0241194377
:10519800214321F0004102685368640D04F48064DF
:1051A80044F07F7444F4583444F47F7444F00304A6
:1051B80023EA0404214351605DF8044B70472DE94C
:1051C800F041044603689E6916F010067ED00D462D
:1051D80090461022DA61002637462368986910F055
:1051E800200F32D18FBBB5F1FF3FF6D0FFF78EFF0E
:1051F800A0EB0800A84201D8002DEED121684A682A
:1052080002F4804294F84230DBB2886910F4004F0F
:1052180004D0203B18BF012302B973B923689B69E6
:1052280013F0200FD9D1FFF771FFA0EB0800192860
:10523800F4D946F020060127CFE74B6843F48043B2
:105248004B60FFF763FF8046E8E70FB92022DA6179
:1052580046F0040601252268936913F4807F05D07F
:1052680046F001064FF48071D161012513F4806F77
:1052780006D046F0080622684FF48061D161012506
:1052880013F4007F24D046F0020623684FF400721E
:10529800DA6101252046FFF763FF2268536823F08F
:1052A800FF7323F48B3323F4FF7323F0010353605C
:1052B800636C1E436664202384F84130002384F81D
:1052C800423084F840302846BDE8F0810025C2E726
:1052D800002DF8D0DEE770B504460D461646236863
:1052E8009B6913F0020F22D1324629462046FFF768
:1052F80066FFF0B9B5F1FF3FF1D0FFF707FF801B5C
:10530800A84201D8002DEAD123689B6913F0020F47
:10531800E5D1636C43F020036364202384F84130B3
:10532800002384F8423084F84030012000E0002057
:1053380070BD0120FCE72DE9F04105460F461646F1
:1053480098462C68A46937EA04030CBF4FF0010C97
:105358004FF0000CB44522D1B8F1FF3FF1D0FFF770
:10536800D5FE069BC01A404502D8B8F1000FE8D117
:105378002B689B6937EA03030CBF01230023B34260
:10538800DFD16B6C43F020036B64202385F8413038
:10539800002385F8423085F84030012000E00020E5
:1053A800BDE8F08170B504460D46164604E0236852
:1053B8009B6913F0200F12D023689B6913F0200F0C
:1053C8001BD1324629462046FFF7F9FEB8B9FFF748
:1053D8009DFE801BA842EAD8002DEDD1E7E7636C5B
:1053E80043F020036364202384F84130002384F8C9
:1053F800423084F84030012000E0002070BD0120D8
:10540800FCE770B504460D4616462DE09A6912F081
:10541800040F02D0228D002A4CD19A6912F0100F85
:105428001AD01022DA610423636423682022DA6127
:1054380021684B6823F0FF7323F48B3323F4FF7345
:1054480023F001034B6084F84120002384F84230A4
:1054580084F8403001212DE000236364E5E72368E8
:105468009B6913F0040F18D023689B6913F0040F8D
:105478001FD1324629462046FFF7A1FE0146D8B97A
:1054880023689A6912F0200FC0D1FFF73FFE801BF6
:10549800A842E4D8002DE7D1E1E7636C43F020038C
:1054A8006364202384F84130002384F840300121CC
:1054B80000E00021084670BD0121FBE7002857D015
:1054C80010B5044690F84130002B41D0242384F8CD
:1054D80041302268136823F001031360636822686F
:1054E80023F0706313612268936823F40043936088
:1054F800E368012B31D0A368226843F40443936026
:10550800E368022B2FD0226851681A4B0B43536073
:105518002268D36823F40043D36023696269134384
:10552800A169226843EA0123D360E369216A2268FA
:105538000B4313602268136843F0010313600020D3
:105548006064202384F84130206384F8420010BD51
:1055580080F84030FBF748FCB8E7A368226843F4BA
:1055680000439360CCE723684FF400625A60CAE7AF
:1055780001207047008000022DE9F04782B00F46F5
:105588000A9E90F84110C9B2202940F0A380044631
:105598009046994690F84030012B00F09F804FF0DC
:1055A800010A80F840A0FFF7B1FD054600901923D5
:1055B80052464FF400412046FFF7BDFE002840F058
:1055C8008F80212384F84130102384F8423000234F
:1055D8006364C4F82480A4F82A906363638D9BB243
:1055E800FF2B0AD9FF222285414B00934FF080738D
:1055F80039462046FFF7C5FD18E0628D92B2228534
:105608003B4B00934FF00073D2B239462046FFF768
:10561800B8FD0BE0628D92B22285002300934FF013
:105628000073D2B239462046FFF7ABFD638D9BB2BB
:10563800002B33D02A4631462046FFF74CFE00287F
:1056480050D1626A236812789A62636A013363628E
:10565800638D9BB2013B9BB26385238D013B9BB25B
:105668002385628D92B2002AE0D0002BDED100950E
:105678003346002280212046FFF75DFEA0BB638DE4
:105688009BB2FF2BC6D9FF222285002300934FF03F
:10569800807339462046FFF774FDC7E72A4631462E
:1056A8002046FFF77FFE08BB23682022DA612168C5
:1056B8004B6823F0FF7323F48B3323F4FF7323F039
:1056C80001034B6084F84120002384F8423084F8B9
:1056D800403000E0022002B0BDE8F0870220FAE77F
:1056E8000120F8E70120F6E70120F4E70120F2E7BE
:1056F800002000802DE9F04782B00F460A9E90F8FE
:105708004110C9B2202940F0A2800446904699462B
:1057180090F84030012B00F09E804FF0010A80F88D
:1057280040A0FFF7F3FC05460090192352464FF4BA
:1057380000412046FFF7FFFD002840F08E8022231D
:1057480084F84130102384F8423000236364C4F89D
:105758002480A4F82A906363638D9BB2FF2B0AD937
:10576800FF222285414B00934FF080733946204633
:10577800FFF707FD18E0628D92B222853B4B00933C
:105788004FF00073D2B239462046FFF7FAFC0BE01F
:10579800628D92B22285002300934FF00073D2B23B
:1057A80039462046FFF7EDFC638D9BB2002B32D0C3
:1057B8002A4631462046FFF724FE00284FD12368A9
:1057C8005A6A636A1A70636A01336362228D013A06
:1057D80092B22285638D9BB2013B9BB26385638D38
:1057E8009BB2002BE0D0002ADED100953346802101
:1057F8002046FFF7A0FDA0BB638D9BB2FF2BC7D946
:10580800FF222285002300934FF0807339462046FB
:10581800FFF7B7FCC8E72A4631462046FFF7C2FD26
:1058280008BB23682022DA6121684B6823F0FF73E4
:1058380023F48B3323F4FF7323F001034B6084F8C4
:105848004120002384F8423084F8403000E00220F0
:1058580002B0BDE8F0870220FAE70120F8E701204E
:10586800F6E70120F4E70120F2E700BF00240080FA
:1058780090F84130DBB2202B24D190F84030012B36
:1058880022D0012380F84030242380F84130026878
:10589800136823F0010313600268136823F480532C
:1058A800136002681368194311600268136843F0B3
:1058B80001031360202380F84130002380F8403032
:1058C80018467047022070470220704790F8413010
:1058D800DBB2202B22D190F84030012B20D00123BD
:1058E80080F84030242380F841300268136823F0A0
:1058F800010313600268136823F4706343EA01210B
:1059080011600268136843F001031360202380F8D4
:105918004130002380F84030184670470220704715
:1059280002207047026852E8003F23F4907342E86F
:1059380000310029F6D1026802F1080353E8001F7C
:105948000D4B0B40083242E800310029F3D1C36EF9
:10595800012B06D02023C0F88C300023C366436790
:105968007047026852E8003F23F0100342E8003114
:105978000029F6D1EEE700BFFEFFFFEF70B586B055
:105988000446016883680269134342691343C26984
:1059980013430868884A024013430B60226853681F
:1059A80023F44053E1680B435360A1692268834B99
:1059B8009A4201D0236A19439068814B03400B43F4
:1059C80093602268D36A23F00F03616A0B43D362A2
:1059D80022687C4B9A4221D07B4B9A4200F08C8003
:1059E8007A4B9A4200F0A280794B9A4200F0B58037
:1059F800784B9A4200F0C880774B9A4200F0F480C6
:105A0800764B9A4200F01981754B9A4200F02C812E
:105A18006A4B9A4200F03F81802333E0714B5B6D03
:105A280003F03803282B65D8DFE813F02900640059
:105A38006400640064006400640064004D01640054
:105A48006400640064006400640064002B00640067
:105A58006400640064006400640064005E00640024
:105A68006400640064006400640064006000640012
:105A78006400640064006400640064006200012340
:105A880000E008234D498A4200F02F81E069B0F513
:105A9800004F00F0AF81202B00F20782202B00F28C
:105AA8005182DFE813F01E0224024F024F02270240
:105AB8004F024F024F022C024F024F024F024F0279
:105AC8004F024F024F0231024F024F024F024F0264
